{
  "contractName": "Manager",
  "abi": [
    {
      "inputs": [
        {
          "internalType": "address",
          "name": "_tokenAddress",
          "type": "address"
        },
        {
          "internalType": "address",
          "name": "_nftAddress",
          "type": "address"
        }
      ],
      "stateMutability": "nonpayable",
      "type": "constructor"
    },
    {
      "anonymous": false,
      "inputs": [
        {
          "indexed": false,
          "internalType": "string",
          "name": "id_match",
          "type": "string"
        },
        {
          "indexed": false,
          "internalType": "address",
          "name": "user",
          "type": "address"
        },
        {
          "indexed": false,
          "internalType": "uint256",
          "name": "bet",
          "type": "uint256"
        }
      ],
      "name": "BetSaved",
      "type": "event"
    },
    {
      "anonymous": false,
      "inputs": [
        {
          "indexed": false,
          "internalType": "uint256",
          "name": "_tokenId",
          "type": "uint256"
        },
        {
          "indexed": false,
          "internalType": "address",
          "name": "from",
          "type": "address"
        },
        {
          "indexed": false,
          "internalType": "address",
          "name": "to",
          "type": "address"
        }
      ],
      "name": "NFTsold",
      "type": "event"
    },
    {
      "anonymous": false,
      "inputs": [
        {
          "indexed": false,
          "internalType": "address",
          "name": "user",
          "type": "address"
        },
        {
          "indexed": false,
          "internalType": "uint256",
          "name": "amount",
          "type": "uint256"
        }
      ],
      "name": "TokenSold",
      "type": "event"
    },
    {
      "stateMutability": "payable",
      "type": "fallback",
      "payable": true
    },
    {
      "inputs": [
        {
          "internalType": "address",
          "name": "",
          "type": "address"
        }
      ],
      "name": "_admins",
      "outputs": [
        {
          "internalType": "bool",
          "name": "",
          "type": "bool"
        }
      ],
      "stateMutability": "view",
      "type": "function",
      "constant": true
    },
    {
      "inputs": [
        {
          "internalType": "string",
          "name": "",
          "type": "string"
        }
      ],
      "name": "_bets",
      "outputs": [
        {
          "internalType": "uint256",
          "name": "",
          "type": "uint256"
        }
      ],
      "stateMutability": "view",
      "type": "function",
      "constant": true
    },
    {
      "inputs": [
        {
          "internalType": "uint256",
          "name": "",
          "type": "uint256"
        },
        {
          "internalType": "address",
          "name": "",
          "type": "address"
        }
      ],
      "name": "_catalog",
      "outputs": [
        {
          "internalType": "uint256",
          "name": "",
          "type": "uint256"
        }
      ],
      "stateMutability": "view",
      "type": "function",
      "constant": true
    },
    {
      "inputs": [
        {
          "internalType": "uint256",
          "name": "",
          "type": "uint256"
        }
      ],
      "name": "_catalog_ids",
      "outputs": [
        {
          "internalType": "uint256",
          "name": "",
          "type": "uint256"
        }
      ],
      "stateMutability": "view",
      "type": "function",
      "constant": true
    },
    {
      "inputs": [
        {
          "internalType": "string",
          "name": "",
          "type": "string"
        }
      ],
      "name": "_matchCreators",
      "outputs": [
        {
          "internalType": "address",
          "name": "",
          "type": "address"
        }
      ],
      "stateMutability": "view",
      "type": "function",
      "constant": true
    },
    {
      "inputs": [
        {
          "internalType": "string",
          "name": "",
          "type": "string"
        },
        {
          "internalType": "address",
          "name": "",
          "type": "address"
        }
      ],
      "name": "_matches",
      "outputs": [
        {
          "internalType": "uint256",
          "name": "",
          "type": "uint256"
        }
      ],
      "stateMutability": "view",
      "type": "function",
      "constant": true
    },
    {
      "inputs": [
        {
          "internalType": "uint256",
          "name": "",
          "type": "uint256"
        }
      ],
      "name": "_purchasable",
      "outputs": [
        {
          "internalType": "bool",
          "name": "",
          "type": "bool"
        }
      ],
      "stateMutability": "view",
      "type": "function",
      "constant": true
    },
    {
      "inputs": [],
      "name": "betPrice",
      "outputs": [
        {
          "internalType": "uint256",
          "name": "",
          "type": "uint256"
        }
      ],
      "stateMutability": "view",
      "type": "function",
      "constant": true
    },
    {
      "inputs": [
        {
          "internalType": "uint256",
          "name": "",
          "type": "uint256"
        }
      ],
      "name": "matches_ids",
      "outputs": [
        {
          "internalType": "string",
          "name": "",
          "type": "string"
        }
      ],
      "stateMutability": "view",
      "type": "function",
      "constant": true
    },
    {
      "inputs": [],
      "name": "nft",
      "outputs": [
        {
          "internalType": "contract IERC721",
          "name": "",
          "type": "address"
        }
      ],
      "stateMutability": "view",
      "type": "function",
      "constant": true
    },
    {
      "inputs": [],
      "name": "owner",
      "outputs": [
        {
          "internalType": "address payable",
          "name": "",
          "type": "address"
        }
      ],
      "stateMutability": "view",
      "type": "function",
      "constant": true
    },
    {
      "inputs": [],
      "name": "token",
      "outputs": [
        {
          "internalType": "contract IERC20",
          "name": "",
          "type": "address"
        }
      ],
      "stateMutability": "view",
      "type": "function",
      "constant": true
    },
    {
      "inputs": [],
      "name": "tokenPrice",
      "outputs": [
        {
          "internalType": "uint256",
          "name": "",
          "type": "uint256"
        }
      ],
      "stateMutability": "view",
      "type": "function",
      "constant": true
    },
    {
      "stateMutability": "payable",
      "type": "receive",
      "payable": true
    },
    {
      "inputs": [
        {
          "internalType": "string",
          "name": "id_match",
          "type": "string"
        },
        {
          "internalType": "uint256",
          "name": "winner",
          "type": "uint256"
        }
      ],
      "name": "storeBet",
      "outputs": [],
      "stateMutability": "nonpayable",
      "type": "function"
    },
    {
      "inputs": [
        {
          "internalType": "uint256",
          "name": "ethAmount",
          "type": "uint256"
        }
      ],
      "name": "buyTokens",
      "outputs": [],
      "stateMutability": "payable",
      "type": "function",
      "payable": true
    },
    {
      "inputs": [
        {
          "internalType": "uint256",
          "name": "_tokenId",
          "type": "uint256"
        }
      ],
      "name": "buyNFT",
      "outputs": [],
      "stateMutability": "nonpayable",
      "type": "function"
    },
    {
      "inputs": [
        {
          "internalType": "uint256",
          "name": "_tokenId",
          "type": "uint256"
        },
        {
          "internalType": "uint256",
          "name": "price",
          "type": "uint256"
        }
      ],
      "name": "ListNFT",
      "outputs": [],
      "stateMutability": "nonpayable",
      "type": "function"
    },
    {
      "inputs": [
        {
          "internalType": "uint256",
          "name": "_tokenId",
          "type": "uint256"
        },
        {
          "internalType": "bool",
          "name": "state",
          "type": "bool"
        }
      ],
      "name": "changeStateSale",
      "outputs": [],
      "stateMutability": "nonpayable",
      "type": "function"
    },
    {
      "inputs": [
        {
          "internalType": "uint256",
          "name": "_tokenId",
          "type": "uint256"
        },
        {
          "internalType": "uint256",
          "name": "price",
          "type": "uint256"
        }
      ],
      "name": "changePrice",
      "outputs": [],
      "stateMutability": "nonpayable",
      "type": "function"
    },
    {
      "inputs": [
        {
          "internalType": "string",
          "name": "id_match",
          "type": "string"
        }
      ],
      "name": "createMatch",
      "outputs": [],
      "stateMutability": "nonpayable",
      "type": "function"
    },
    {
      "inputs": [
        {
          "internalType": "string",
          "name": "id_match",
          "type": "string"
        },
        {
          "internalType": "uint256",
          "name": "winner",
          "type": "uint256"
        }
      ],
      "name": "closeMatch",
      "outputs": [],
      "stateMutability": "nonpayable",
      "type": "function"
    },
    {
      "inputs": [
        {
          "internalType": "address",
          "name": "user",
          "type": "address"
        },
        {
          "internalType": "bool",
          "name": "AdminRol",
          "type": "bool"
        }
      ],
      "name": "ChangeAdminRole",
      "outputs": [],
      "stateMutability": "nonpayable",
      "type": "function"
    },
    {
      "inputs": [
        {
          "internalType": "uint256",
          "name": "_tokenPrice",
          "type": "uint256"
        }
      ],
      "name": "setTokenPrice",
      "outputs": [],
      "stateMutability": "nonpayable",
      "type": "function"
    },
    {
      "inputs": [],
      "name": "withdrawTokens",
      "outputs": [],
      "stateMutability": "nonpayable",
      "type": "function"
    },
    {
      "inputs": [],
      "name": "withdrawEther",
      "outputs": [],
      "stateMutability": "nonpayable",
      "type": "function"
    },
    {
      "inputs": [
        {
          "internalType": "address",
          "name": "user",
          "type": "address"
        }
      ],
      "name": "isAdmin",
      "outputs": [
        {
          "internalType": "bool",
          "name": "",
          "type": "bool"
        }
      ],
      "stateMutability": "view",
      "type": "function",
      "constant": true
    },
    {
      "inputs": [
        {
          "internalType": "string",
          "name": "id_match",
          "type": "string"
        }
      ],
      "name": "MatchCreator",
      "outputs": [
        {
          "internalType": "address",
          "name": "",
          "type": "address"
        }
      ],
      "stateMutability": "view",
      "type": "function",
      "constant": true
    },
    {
      "inputs": [
        {
          "internalType": "string",
          "name": "id_match",
          "type": "string"
        },
        {
          "internalType": "address",
          "name": "user",
          "type": "address"
        }
      ],
      "name": "checkUserbet",
      "outputs": [
        {
          "internalType": "uint256",
          "name": "",
          "type": "uint256"
        }
      ],
      "stateMutability": "view",
      "type": "function",
      "constant": true
    },
    {
      "inputs": [
        {
          "internalType": "string",
          "name": "id_match",
          "type": "string"
        }
      ],
      "name": "checkMatchResult",
      "outputs": [
        {
          "internalType": "uint256",
          "name": "",
          "type": "uint256"
        }
      ],
      "stateMutability": "view",
      "type": "function",
      "constant": true
    },
    {
      "inputs": [
        {
          "internalType": "uint256",
          "name": "_tokenId",
          "type": "uint256"
        }
      ],
      "name": "isNFTpurchasable",
      "outputs": [
        {
          "internalType": "bool",
          "name": "",
          "type": "bool"
        }
      ],
      "stateMutability": "view",
      "type": "function",
      "constant": true
    },
    {
      "inputs": [
        {
          "internalType": "uint256",
          "name": "_tokenId",
          "type": "uint256"
        }
      ],
      "name": "priceOfNFT",
      "outputs": [
        {
          "internalType": "uint256",
          "name": "",
          "type": "uint256"
        }
      ],
      "stateMutability": "view",
      "type": "function",
      "constant": true
    },
    {
      "inputs": [],
      "name": "getMatches",
      "outputs": [
        {
          "internalType": "string[]",
          "name": "",
          "type": "string[]"
        }
      ],
      "stateMutability": "view",
      "type": "function",
      "constant": true
    },
    {
      "inputs": [],
      "name": "getCatalog",
      "outputs": [
        {
          "internalType": "uint256[]",
          "name": "",
          "type": "uint256[]"
        }
      ],
      "stateMutability": "view",
      "type": "function",
      "constant": true
    }
  ],
  "bytecode": "0x60806040523480156200001157600080fd5b50604051620055fa380380620055fa83398181016040528101906200003791906200090c565b60016000803373ffffffffffffffffffffffffffffffffffffffff1673ffffffffffffffffffffffffffffffffffffffff16815260200190815260200160002060006101000a81548160ff02191690831515021790555030600160006101000a81548173ffffffffffffffffffffffffffffffffffffffff021916908373ffffffffffffffffffffffffffffffffffffffff16021790555060006002604051620000e190620009ae565b908152602001604051809103902060003373ffffffffffffffffffffffffffffffffffffffff1673ffffffffffffffffffffffffffffffffffffffff1681526020019081526020016000208190555060006002604051620001429062000a15565b908152602001604051809103902060003373ffffffffffffffffffffffffffffffffffffffff1673ffffffffffffffffffffffffffffffffffffffff1681526020019081526020016000208190555060006002604051620001a39062000a7c565b908152602001604051809103902060003373ffffffffffffffffffffffffffffffffffffffff1673ffffffffffffffffffffffffffffffffffffffff1681526020019081526020016000208190555060006002604051620002049062000ae3565b908152602001604051809103902060003373ffffffffffffffffffffffffffffffffffffffff1673ffffffffffffffffffffffffffffffffffffffff168152602001908152602001600020819055503360036040516200026490620009ae565b908152602001604051809103902060006101000a81548173ffffffffffffffffffffffffffffffffffffffff021916908373ffffffffffffffffffffffffffffffffffffffff160217905550336003604051620002c19062000a15565b908152602001604051809103902060006101000a81548173ffffffffffffffffffffffffffffffffffffffff021916908373ffffffffffffffffffffffffffffffffffffffff1602179055503360036040516200031e9062000a7c565b908152602001604051809103902060006101000a81548173ffffffffffffffffffffffffffffffffffffffff021916908373ffffffffffffffffffffffffffffffffffffffff1602179055503360036040516200037b9062000ae3565b908152602001604051809103902060006101000a81548173ffffffffffffffffffffffffffffffffffffffff021916908373ffffffffffffffffffffffffffffffffffffffff160217905550600480600181540180825580915050600190039060005260206000200160006040518060400160405280601a81526020017f5131613a205265616c204d6164726964202d204368656c736561000000000000815250909190915090816200042f919062000d74565b50600480600181540180825580915050600190039060005260206000200160006040518060400160405280602081526020017f5131623a2046432042617965726e202d204d616e6368657374657220436974798152509091909150908162000498919062000d74565b50600480600181540180825580915050600190039060005260206000200160006040518060400160405280601a81526020017f5132613a2042656e66696361202d20496e746572204d696c616e0000000000008152509091909150908162000501919062000d74565b50600480600181540180825580915050600190039060005260206000200160006040518060400160405280601681526020017f5132623a204143204d696c616e202d204e61706f6c6900000000000000000000815250909190915090816200056a919062000d74565b50600060056040516200057d90620009ae565b90815260200160405180910390208190555060006005604051620005a19062000a15565b90815260200160405180910390208190555060006005604051620005c59062000a7c565b90815260200160405180910390208190555060006005604051620005e99062000ae3565b908152602001604051809103902081905550600260068190555081600760006101000a81548173ffffffffffffffffffffffffffffffffffffffff021916908373ffffffffffffffffffffffffffffffffffffffff16021790555066038d7ea4c6800060088190555080600960006101000a81548173ffffffffffffffffffffffffffffffffffffffff021916908373ffffffffffffffffffffffffffffffffffffffff160217905550600a80600080815260200190815260200160002060003373ffffffffffffffffffffffffffffffffffffffff1673ffffffffffffffffffffffffffffffffffffffff168152602001908152602001600020819055506014600a60006001815260200190815260200160002060003373ffffffffffffffffffffffffffffffffffffffff1673ffffffffffffffffffffffffffffffffffffffff16815260200190815260200160002081905550601e600a60006002815260200190815260200160002060003373ffffffffffffffffffffffffffffffffffffffff1673ffffffffffffffffffffffffffffffffffffffff168152602001908152602001600020819055506001600b600080815260200190815260200160002060006101000a81548160ff0219169083151502179055506001600b60006001815260200190815260200160002060006101000a81548160ff0219169083151502179055506001600b60006002815260200190815260200160002060006101000a81548160ff021916908315150217905550600c60009080600181540180825580915050600190039060005260206000200160009091909190915055600c60019080600181540180825580915050600190039060005260206000200160009091909190915055600c60029080600181540180825580915050600190039060005260206000200160009091909190915055505062000e5b565b600080fd5b600073ffffffffffffffffffffffffffffffffffffffff82169050919050565b6000620008d482620008a7565b9050919050565b620008e681620008c7565b8114620008f257600080fd5b50565b6000815190506200090681620008db565b92915050565b60008060408385031215620009265762000925620008a2565b5b60006200093685828601620008f5565b92505060206200094985828601620008f5565b9150509250929050565b600081905092915050565b7f5131613a205265616c204d6164726964202d204368656c736561000000000000600082015250565b600062000996601a8362000953565b9150620009a3826200095e565b601a82019050919050565b6000620009bb8262000987565b9150819050919050565b7f5131623a2046432042617965726e202d204d616e636865737465722043697479600082015250565b6000620009fd60208362000953565b915062000a0a82620009c5565b602082019050919050565b600062000a2282620009ee565b9150819050919050565b7f5132613a2042656e66696361202d20496e746572204d696c616e000000000000600082015250565b600062000a64601a8362000953565b915062000a718262000a2c565b601a82019050919050565b600062000a898262000a55565b9150819050919050565b7f5132623a204143204d696c616e202d204e61706f6c6900000000000000000000600082015250565b600062000acb60168362000953565b915062000ad88262000a93565b601682019050919050565b600062000af08262000abc565b9150819050919050565b600081519050919050565b7f4e487b7100000000000000000000000000000000000000000000000000000000600052604160045260246000fd5b7f4e487b7100000000000000000000000000000000000000000000000000000000600052602260045260246000fd5b6000600282049050600182168062000b7c57607f821691505b60208210810362000b925762000b9162000b34565b5b50919050565b60008190508160005260206000209050919050565b60006020601f8301049050919050565b600082821b905092915050565b60006008830262000bfc7fffffffffffffffffffffffffffffffffffffffffffffffffffffffffffffffff8262000bbd565b62000c08868362000bbd565b95508019841693508086168417925050509392505050565b6000819050919050565b6000819050919050565b600062000c5562000c4f62000c498462000c20565b62000c2a565b62000c20565b9050919050565b6000819050919050565b62000c718362000c34565b62000c8962000c808262000c5c565b84845462000bca565b825550505050565b600090565b62000ca062000c91565b62000cad81848462000c66565b505050565b5b8181101562000cd55762000cc960008262000c96565b60018101905062000cb3565b5050565b601f82111562000d245762000cee8162000b98565b62000cf98462000bad565b8101602085101562000d09578190505b62000d2162000d188562000bad565b83018262000cb2565b50505b505050565b600082821c905092915050565b600062000d496000198460080262000d29565b1980831691505092915050565b600062000d64838362000d36565b9150826002028217905092915050565b62000d7f8262000afa565b67ffffffffffffffff81111562000d9b5762000d9a62000b05565b5b62000da7825462000b63565b62000db482828562000cd9565b600060209050601f83116001811462000dec576000841562000dd7578287015190505b62000de3858262000d56565b86555062000e53565b601f19841662000dfc8662000b98565b60005b8281101562000e265784890151825560018201915060208501945060208101905062000dff565b8683101562000e46578489015162000e42601f89168262000d36565b8355505b6001600288020188555050505b505050505050565b61478f8062000e6b6000396000f3fe6080604052600436106101f25760003560e01c80638da5cb5b1161010d578063cb8ec993116100a0578063e05e9d431161006f578063e05e9d4314610742578063eafa53b21461076b578063f1ea713f14610794578063f857895c146107d1578063fc0c546a1461080e576101f9565b8063cb8ec99314610674578063cfd8a175146106b1578063d44fcd5d146106dc578063d47d0ead14610719576101f9565b8063b3de019c116100dc578063b3de019c146105a6578063b7c83872146105cf578063ba215e9a1461060c578063c0bf3e2314610649576101f9565b80638da5cb5b146104d85780639ceee6a614610503578063a1dbc35414610540578063adc2524c1461057d576101f9565b806351ed8288116101855780637362377b116101545780637362377b146104425780637ea23d19146104595780637ff9b596146104965780638d8f2adb146104c1576101f9565b806351ed82881461038a5780635762b50c146103b35780635ced01a4146103dc5780636a61e5fc14610419576101f9565b806324d7806c116101c157806324d7806c146102db5780632c70120e146103185780633610724e1461034357806347ccca021461035f576101f9565b80630722764b146101fb5780630d5e2053146102385780631ff86ae21461027557806323a609321461029e576101f9565b366101f957005b005b34801561020757600080fd5b50610222600480360381019061021d9190612eb3565b610839565b60405161022f9190612eef565b60405180910390f35b34801561024457600080fd5b5061025f600480360381019061025a9190612f68565b61085d565b60405161026c9190612fb0565b60405180910390f35b34801561028157600080fd5b5061029c60048036038101906102979190613111565b61087d565b005b3480156102aa57600080fd5b506102c560048036038101906102c0919061316d565b610dcf565b6040516102d291906131c5565b60405180910390f35b3480156102e757600080fd5b5061030260048036038101906102fd9190612f68565b610e17565b60405161030f9190612fb0565b60405180910390f35b34801561032457600080fd5b5061032d610e6c565b60405161033a9190613321565b60405180910390f35b61035d60048036038101906103589190612eb3565b610f45565b005b34801561036b57600080fd5b50610374611169565b60405161038191906133a2565b60405180910390f35b34801561039657600080fd5b506103b160048036038101906103ac9190612eb3565b61118f565b005b3480156103bf57600080fd5b506103da60048036038101906103d5919061316d565b611812565b005b3480156103e857600080fd5b5061040360048036038101906103fe91906133bd565b611a47565b6040516104109190612eef565b60405180910390f35b34801561042557600080fd5b50610440600480360381019061043b9190612eb3565b611a6c565b005b34801561044e57600080fd5b50610457611b08565b005b34801561046557600080fd5b50610480600480360381019061047b919061316d565b611c98565b60405161048d9190612eef565b60405180910390f35b3480156104a257600080fd5b506104ab611cc6565b6040516104b89190612eef565b60405180910390f35b3480156104cd57600080fd5b506104d6611ccc565b005b3480156104e457600080fd5b506104ed611efc565b6040516104fa919061341e565b60405180910390f35b34801561050f57600080fd5b5061052a6004803603810190610525919061316d565b611f22565b6040516105379190612eef565b60405180910390f35b34801561054c57600080fd5b5061056760048036038101906105629190612eb3565b6120a0565b6040516105749190612fb0565b60405180910390f35b34801561058957600080fd5b506105a4600480360381019061059f9190613439565b6120cf565b005b3480156105b257600080fd5b506105cd60048036038101906105c89190613439565b612286565b005b3480156105db57600080fd5b506105f660048036038101906105f1919061316d565b6123e8565b60405161060391906131c5565b60405180910390f35b34801561061857600080fd5b50610633600480360381019061062e9190613479565b612431565b6040516106409190612eef565b60405180910390f35b34801561065557600080fd5b5061065e612497565b60405161066b9190613593565b60405180910390f35b34801561068057600080fd5b5061069b60048036038101906106969190612eb3565b6124ef565b6040516106a89190612fb0565b60405180910390f35b3480156106bd57600080fd5b506106c661250f565b6040516106d39190612eef565b60405180910390f35b3480156106e857600080fd5b5061070360048036038101906106fe9190613479565b612515565b6040516107109190612eef565b60405180910390f35b34801561072557600080fd5b50610740600480360381019061073b91906135e1565b612550565b005b34801561074e57600080fd5b5061076960048036038101906107649190613111565b612710565b005b34801561077757600080fd5b50610792600480360381019061078d9190613621565b612a6b565b005b3480156107a057600080fd5b506107bb60048036038101906107b69190612eb3565b612b57565b6040516107c891906136ab565b60405180910390f35b3480156107dd57600080fd5b506107f860048036038101906107f39190612eb3565b612c03565b6040516108059190612eef565b60405180910390f35b34801561081a57600080fd5b50610823612d03565b60405161083091906136ee565b60405180910390f35b600c818154811061084957600080fd5b906000526020600020016000915090505481565b60006020528060005260406000206000915054906101000a900460ff1681565b3373ffffffffffffffffffffffffffffffffffffffff166003836040516108a49190613745565b908152602001604051809103902060009054906101000a900473ffffffffffffffffffffffffffffffffffffffff1673ffffffffffffffffffffffffffffffffffffffff1603610929576040517f08c379a0000000000000000000000000000000000000000000000000000000008152600401610920906137a8565b60405180910390fd5b60018114806109385750600281145b610977576040517f08c379a000000000000000000000000000000000000000000000000000000000815260040161096e90613814565b60405180910390fd5b60006002836040516109899190613745565b908152602001604051809103902060006003856040516109a99190613745565b908152602001604051809103902060009054906101000a900473ffffffffffffffffffffffffffffffffffffffff1673ffffffffffffffffffffffffffffffffffffffff1673ffffffffffffffffffffffffffffffffffffffff1681526020019081526020016000205414610a53576040517f08c379a0000000000000000000000000000000000000000000000000000000008152600401610a4a90613880565b60405180910390fd5b80610a5e8333612431565b03610a9e576040517f08c379a0000000000000000000000000000000000000000000000000000000008152600401610a9590613912565b60405180910390fd5b600654600760009054906101000a900473ffffffffffffffffffffffffffffffffffffffff1673ffffffffffffffffffffffffffffffffffffffff166370a08231336040518263ffffffff1660e01b8152600401610afc91906131c5565b602060405180830381865afa158015610b19573d6000803e3d6000fd5b505050506040513d601f19601f82011682018060405250810190610b3d9190613947565b1015610b7e576040517f08c379a0000000000000000000000000000000000000000000000000000000008152600401610b75906139c0565b60405180910390fd5b600760009054906101000a900473ffffffffffffffffffffffffffffffffffffffff1673ffffffffffffffffffffffffffffffffffffffff166323b872dd33600160009054906101000a900473ffffffffffffffffffffffffffffffffffffffff16670de0b6b3a7640000600654610bf69190613a0f565b6040518463ffffffff1660e01b8152600401610c1493929190613a72565b6020604051808303816000875af1158015610c33573d6000803e3d6000fd5b505050506040513d601f19601f82011682018060405250810190610c579190613abe565b610c96576040517f08c379a0000000000000000000000000000000000000000000000000000000008152600401610c8d90613b5d565b60405180910390fd5b6000600283604051610ca89190613745565b908152602001604051809103902060003373ffffffffffffffffffffffffffffffffffffffff1673ffffffffffffffffffffffffffffffffffffffff1681526020019081526020016000205403610d30576001600583604051610d0b9190613745565b90815260200160405180910390206000828254610d289190613b7d565b925050819055505b80600283604051610d419190613745565b908152602001604051809103902060003373ffffffffffffffffffffffffffffffffffffffff1673ffffffffffffffffffffffffffffffffffffffff168152602001908152602001600020819055507f26c6f01a6145152ba6531bf61dca86b8a0e58ff9a8011c641f84dfbbeeceaffc823383604051610dc393929190613bb1565b60405180910390a15050565b6000600382604051610de19190613745565b908152602001604051809103902060009054906101000a900473ffffffffffffffffffffffffffffffffffffffff169050919050565b60008060008373ffffffffffffffffffffffffffffffffffffffff1673ffffffffffffffffffffffffffffffffffffffff16815260200190815260200160002060009054906101000a900460ff169050919050565b60606004805480602002602001604051908101604052809291908181526020016000905b82821015610f3c578382906000526020600020018054610eaf90613c1e565b80601f0160208091040260200160405190810160405280929190818152602001828054610edb90613c1e565b8015610f285780601f10610efd57610100808354040283529160200191610f28565b820191906000526020600020905b815481529060010190602001808311610f0b57829003601f168201915b505050505081526020019060010190610e90565b50505050905090565b600854811015610f8a576040517f08c379a0000000000000000000000000000000000000000000000000000000008152600401610f8190613c9b565b60405180910390fd5b600060085482610f9a9190613cea565b90506000339050828173ffffffffffffffffffffffffffffffffffffffff16311015610ffb576040517f08c379a0000000000000000000000000000000000000000000000000000000008152600401610ff290613d67565b60405180910390fd5b670de0b6b3a76400008261100f9190613a0f565b600760009054906101000a900473ffffffffffffffffffffffffffffffffffffffff1673ffffffffffffffffffffffffffffffffffffffff166370a08231600160009054906101000a900473ffffffffffffffffffffffffffffffffffffffff166040518263ffffffff1660e01b815260040161108c9190613d87565b602060405180830381865afa1580156110a9573d6000803e3d6000fd5b505050506040513d601f19601f820116820180604052508101906110cd9190613947565b101561110e576040517f08c379a000000000000000000000000000000000000000000000000000000000815260040161110590613dee565b60405180910390fd5b61112b81670de0b6b3a7640000846111269190613a0f565b612d29565b7ffe2ff4cf36ff7d2c2b06eb960897ee0d76d9c3e58da12feb7b93e86b226dd344818360405161115c929190613e0e565b60405180910390a1505050565b600960009054906101000a900473ffffffffffffffffffffffffffffffffffffffff1681565b6000600960009054906101000a900473ffffffffffffffffffffffffffffffffffffffff1673ffffffffffffffffffffffffffffffffffffffff16636352211e836040518263ffffffff1660e01b81526004016111ec9190612eef565b602060405180830381865afa158015611209573d6000803e3d6000fd5b505050506040513d601f19601f8201168201806040525081019061122d9190613e4c565b90503373ffffffffffffffffffffffffffffffffffffffff16600960009054906101000a900473ffffffffffffffffffffffffffffffffffffffff1673ffffffffffffffffffffffffffffffffffffffff16636352211e846040518263ffffffff1660e01b81526004016112a19190612eef565b602060405180830381865afa1580156112be573d6000803e3d6000fd5b505050506040513d601f19601f820116820180604052508101906112e29190613e4c565b73ffffffffffffffffffffffffffffffffffffffff1603611338576040517f08c379a000000000000000000000000000000000000000000000000000000000815260040161132f90613ec5565b60405180910390fd5b600160009054906101000a900473ffffffffffffffffffffffffffffffffffffffff1673ffffffffffffffffffffffffffffffffffffffff16600960009054906101000a900473ffffffffffffffffffffffffffffffffffffffff1673ffffffffffffffffffffffffffffffffffffffff1663081812fc846040518263ffffffff1660e01b81526004016113cc9190612eef565b602060405180830381865afa1580156113e9573d6000803e3d6000fd5b505050506040513d601f19601f8201168201806040525081019061140d9190613e4c565b73ffffffffffffffffffffffffffffffffffffffff1614611463576040517f08c379a000000000000000000000000000000000000000000000000000000000815260040161145a90613f31565b60405180910390fd5b60011515600b600084815260200190815260200160002060009054906101000a900460ff161515146114ca576040517f08c379a00000000000000000000000000000000000000000000000000000000081526004016114c190613f9d565b60405180910390fd5b600760009054906101000a900473ffffffffffffffffffffffffffffffffffffffff1673ffffffffffffffffffffffffffffffffffffffff166323b872dd3383600a600087815260200190815260200160002060008673ffffffffffffffffffffffffffffffffffffffff1673ffffffffffffffffffffffffffffffffffffffff168152602001908152602001600020546040518463ffffffff1660e01b815260040161157993929190613fbd565b6020604051808303816000875af1158015611598573d6000803e3d6000fd5b505050506040513d601f19601f820116820180604052508101906115bc9190613abe565b6115fb576040517f08c379a00000000000000000000000000000000000000000000000000000000081526004016115f290614040565b60405180910390fd5b600960009054906101000a900473ffffffffffffffffffffffffffffffffffffffff1673ffffffffffffffffffffffffffffffffffffffff166323b872dd8233856040518463ffffffff1660e01b815260040161165a93929190613fbd565b600060405180830381600087803b15801561167457600080fd5b505af1158015611688573d6000803e3d6000fd5b50505050600a600083815260200190815260200160002060008273ffffffffffffffffffffffffffffffffffffffff1673ffffffffffffffffffffffffffffffffffffffff16815260200190815260200160002054600a600084815260200190815260200160002060003373ffffffffffffffffffffffffffffffffffffffff1673ffffffffffffffffffffffffffffffffffffffff16815260200190815260200160002081905550600a600083815260200190815260200160002060008273ffffffffffffffffffffffffffffffffffffffff1673ffffffffffffffffffffffffffffffffffffffff16815260200190815260200160002060009055600c828154811061179957611798614060565b5b90600052602060002001600090556000600b600084815260200190815260200160002060006101000a81548160ff0219169083151502179055507f84a5b95d7ca20184759e22b161c2b0239f1b2a898b8ed1ad4d54d05210287fc48282336040516118069392919061408f565b60405180910390a15050565b600115156000803373ffffffffffffffffffffffffffffffffffffffff1673ffffffffffffffffffffffffffffffffffffffff16815260200190815260200160002060009054906101000a900460ff161515146118a4576040517f08c379a000000000000000000000000000000000000000000000000000000000815260040161189b90614112565b60405180910390fd5b600073ffffffffffffffffffffffffffffffffffffffff166003826040516118cc9190613745565b908152602001604051809103902060009054906101000a900473ffffffffffffffffffffffffffffffffffffffff1673ffffffffffffffffffffffffffffffffffffffff1614611951576040517f08c379a00000000000000000000000000000000000000000000000000000000081526004016119489061417e565b60405180910390fd5b60006002826040516119639190613745565b908152602001604051809103902060003373ffffffffffffffffffffffffffffffffffffffff1673ffffffffffffffffffffffffffffffffffffffff16815260200190815260200160002081905550336003826040516119c39190613745565b908152602001604051809103902060006101000a81548173ffffffffffffffffffffffffffffffffffffffff021916908373ffffffffffffffffffffffffffffffffffffffff160217905550600481908060018154018082558091505060019003906000526020600020016000909190919091509081611a439190614340565b5050565b600a602052816000526040600020602052806000526040600020600091509150505481565b600115156000803373ffffffffffffffffffffffffffffffffffffffff1673ffffffffffffffffffffffffffffffffffffffff16815260200190815260200160002060009054906101000a900460ff16151514611afe576040517f08c379a0000000000000000000000000000000000000000000000000000000008152600401611af590614112565b60405180910390fd5b8060088190555050565b600115156000803373ffffffffffffffffffffffffffffffffffffffff1673ffffffffffffffffffffffffffffffffffffffff16815260200190815260200160002060009054906101000a900460ff16151514611b9a576040517f08c379a0000000000000000000000000000000000000000000000000000000008152600401611b9190614112565b60405180910390fd5b6000600160009054906101000a900473ffffffffffffffffffffffffffffffffffffffff1673ffffffffffffffffffffffffffffffffffffffff163103611c16576040517f08c379a0000000000000000000000000000000000000000000000000000000008152600401611c0d9061445e565b60405180910390fd5b3373ffffffffffffffffffffffffffffffffffffffff166108fc600160009054906101000a900473ffffffffffffffffffffffffffffffffffffffff1673ffffffffffffffffffffffffffffffffffffffff16319081150290604051600060405180830381858888f19350505050158015611c95573d6000803e3d6000fd5b50565b6005818051602081018201805184825260208301602085012081835280955050505050506000915090505481565b60085481565b600115156000803373ffffffffffffffffffffffffffffffffffffffff1673ffffffffffffffffffffffffffffffffffffffff16815260200190815260200160002060009054906101000a900460ff16151514611d5e576040517f08c379a0000000000000000000000000000000000000000000000000000000008152600401611d5590614112565b60405180910390fd5b600760009054906101000a900473ffffffffffffffffffffffffffffffffffffffff1673ffffffffffffffffffffffffffffffffffffffff1663a9059cbb33600760009054906101000a900473ffffffffffffffffffffffffffffffffffffffff1673ffffffffffffffffffffffffffffffffffffffff166370a08231600160009054906101000a900473ffffffffffffffffffffffffffffffffffffffff166040518263ffffffff1660e01b8152600401611e1a9190613d87565b602060405180830381865afa158015611e37573d6000803e3d6000fd5b505050506040513d601f19601f82011682018060405250810190611e5b9190613947565b6040518363ffffffff1660e01b8152600401611e7892919061447e565b6020604051808303816000875af1158015611e97573d6000803e3d6000fd5b505050506040513d601f19601f82011682018060405250810190611ebb9190613abe565b611efa576040517f08c379a0000000000000000000000000000000000000000000000000000000008152600401611ef190614040565b60405180910390fd5b565b600160009054906101000a900473ffffffffffffffffffffffffffffffffffffffff1681565b600080600283604051611f359190613745565b90815260200160405180910390206000600385604051611f559190613745565b908152602001604051809103902060009054906101000a900473ffffffffffffffffffffffffffffffffffffffff1673ffffffffffffffffffffffffffffffffffffffff1673ffffffffffffffffffffffffffffffffffffffff1681526020019081526020016000205403611fff576040517f08c379a0000000000000000000000000000000000000000000000000000000008152600401611ff6906144f3565b60405180910390fd5b60028260405161200f9190613745565b9081526020016040518091039020600060038460405161202f9190613745565b908152602001604051809103902060009054906101000a900473ffffffffffffffffffffffffffffffffffffffff1673ffffffffffffffffffffffffffffffffffffffff1673ffffffffffffffffffffffffffffffffffffffff168152602001908152602001600020549050919050565b600080600b600084815260200190815260200160002060009054906101000a900460ff16905080915050919050565b3373ffffffffffffffffffffffffffffffffffffffff16600960009054906101000a900473ffffffffffffffffffffffffffffffffffffffff1673ffffffffffffffffffffffffffffffffffffffff16636352211e846040518263ffffffff1660e01b81526004016121419190612eef565b602060405180830381865afa15801561215e573d6000803e3d6000fd5b505050506040513d601f19601f820116820180604052508101906121829190613e4c565b73ffffffffffffffffffffffffffffffffffffffff16146121d8576040517f08c379a00000000000000000000000000000000000000000000000000000000081526004016121cf9061455f565b60405180910390fd5b80600a600084815260200190815260200160002060003373ffffffffffffffffffffffffffffffffffffffff1673ffffffffffffffffffffffffffffffffffffffff16815260200190815260200160002081905550600c8290806001815401808255809150506001900390600052602060002001600090919091909150556001600b600084815260200190815260200160002060006101000a81548160ff0219169083151502179055505050565b3373ffffffffffffffffffffffffffffffffffffffff16600960009054906101000a900473ffffffffffffffffffffffffffffffffffffffff1673ffffffffffffffffffffffffffffffffffffffff16636352211e846040518263ffffffff1660e01b81526004016122f89190612eef565b602060405180830381865afa158015612315573d6000803e3d6000fd5b505050506040513d601f19601f820116820180604052508101906123399190613e4c565b73ffffffffffffffffffffffffffffffffffffffff161461238f576040517f08c379a00000000000000000000000000000000000000000000000000000000081526004016123869061455f565b60405180910390fd5b80600a600084815260200190815260200160002060003373ffffffffffffffffffffffffffffffffffffffff1673ffffffffffffffffffffffffffffffffffffffff168152602001908152602001600020819055505050565b6003818051602081018201805184825260208301602085012081835280955050505050506000915054906101000a900473ffffffffffffffffffffffffffffffffffffffff1681565b60006002836040516124439190613745565b908152602001604051809103902060008373ffffffffffffffffffffffffffffffffffffffff1673ffffffffffffffffffffffffffffffffffffffff16815260200190815260200160002054905092915050565b6060600c8054806020026020016040519081016040528092919081815260200182805480156124e557602002820191906000526020600020905b8154815260200190600101908083116124d1575b5050505050905090565b600b6020528060005260406000206000915054906101000a900460ff1681565b60065481565b600282805160208101820180518482526020830160208501208183528095505050505050602052806000526040600020600091509150505481565b3373ffffffffffffffffffffffffffffffffffffffff16600960009054906101000a900473ffffffffffffffffffffffffffffffffffffffff1673ffffffffffffffffffffffffffffffffffffffff16636352211e846040518263ffffffff1660e01b81526004016125c29190612eef565b602060405180830381865afa1580156125df573d6000803e3d6000fd5b505050506040513d601f19601f820116820180604052508101906126039190613e4c565b73ffffffffffffffffffffffffffffffffffffffff1614612659576040517f08c379a00000000000000000000000000000000000000000000000000000000081526004016126509061455f565b60405180910390fd5b801515600b600084815260200190815260200160002060009054906101000a900460ff161515036126bf576040517f08c379a00000000000000000000000000000000000000000000000000000000081526004016126b6906145cb565b60405180910390fd5b80600b600084815260200190815260200160002060006101000a81548160ff021916908315150217905550600c82815481106126fe576126fd614060565b5b90600052602060002001600090555050565b600115156000803373ffffffffffffffffffffffffffffffffffffffff1673ffffffffffffffffffffffffffffffffffffffff16815260200190815260200160002060009054906101000a900460ff161515146127a2576040517f08c379a000000000000000000000000000000000000000000000000000000000815260040161279990614112565b60405180910390fd5b3373ffffffffffffffffffffffffffffffffffffffff166003836040516127c99190613745565b908152602001604051809103902060009054906101000a900473ffffffffffffffffffffffffffffffffffffffff1673ffffffffffffffffffffffffffffffffffffffff161461284e576040517f08c379a000000000000000000000000000000000000000000000000000000000815260040161284590614637565b60405180910390fd5b600181148061285d5750600281145b61289c576040517f08c379a000000000000000000000000000000000000000000000000000000000815260040161289390613814565b60405180910390fd5b60006002836040516128ae9190613745565b908152602001604051809103902060006003856040516128ce9190613745565b908152602001604051809103902060009054906101000a900473ffffffffffffffffffffffffffffffffffffffff1673ffffffffffffffffffffffffffffffffffffffff1673ffffffffffffffffffffffffffffffffffffffff1681526020019081526020016000205414612978576040517f08c379a000000000000000000000000000000000000000000000000000000000815260040161296f90613880565b60405180910390fd5b806002836040516129899190613745565b908152602001604051809103902060003373ffffffffffffffffffffffffffffffffffffffff1673ffffffffffffffffffffffffffffffffffffffff1681526020019081526020016000208190555060005b600480549050811015612a6657828051906020012060048281548110612a0457612a03614060565b5b90600052602060002001604051612a1b91906146fa565b604051809103902003612a535760048181548110612a3c57612a3b614060565b5b906000526020600020016000612a529190612e0c565b5b8080612a5e90614711565b9150506129db565b505050565b600115156000803373ffffffffffffffffffffffffffffffffffffffff1673ffffffffffffffffffffffffffffffffffffffff16815260200190815260200160002060009054906101000a900460ff16151514612afd576040517f08c379a0000000000000000000000000000000000000000000000000000000008152600401612af490614112565b60405180910390fd5b806000808473ffffffffffffffffffffffffffffffffffffffff1673ffffffffffffffffffffffffffffffffffffffff16815260200190815260200160002060006101000a81548160ff0219169083151502179055505050565b60048181548110612b6757600080fd5b906000526020600020016000915090508054612b8290613c1e565b80601f0160208091040260200160405190810160405280929190818152602001828054612bae90613c1e565b8015612bfb5780601f10612bd057610100808354040283529160200191612bfb565b820191906000526020600020905b815481529060010190602001808311612bde57829003601f168201915b505050505081565b600080600960009054906101000a900473ffffffffffffffffffffffffffffffffffffffff1673ffffffffffffffffffffffffffffffffffffffff16636352211e846040518263ffffffff1660e01b8152600401612c619190612eef565b602060405180830381865afa158015612c7e573d6000803e3d6000fd5b505050506040513d601f19601f82011682018060405250810190612ca29190613e4c565b90506000600a600085815260200190815260200160002060008373ffffffffffffffffffffffffffffffffffffffff1673ffffffffffffffffffffffffffffffffffffffff1681526020019081526020016000205490508092505050919050565b600760009054906101000a900473ffffffffffffffffffffffffffffffffffffffff1681565b600760009054906101000a900473ffffffffffffffffffffffffffffffffffffffff1673ffffffffffffffffffffffffffffffffffffffff1663a9059cbb83836040518363ffffffff1660e01b8152600401612d8692919061447e565b6020604051808303816000875af1158015612da5573d6000803e3d6000fd5b505050506040513d601f19601f82011682018060405250810190612dc99190613abe565b612e08576040517f08c379a0000000000000000000000000000000000000000000000000000000008152600401612dff90614040565b60405180910390fd5b5050565b508054612e1890613c1e565b6000825580601f10612e2a5750612e49565b601f016020900490600052602060002090810190612e489190612e4c565b5b50565b5b80821115612e65576000816000905550600101612e4d565b5090565b6000604051905090565b600080fd5b600080fd5b6000819050919050565b612e9081612e7d565b8114612e9b57600080fd5b50565b600081359050612ead81612e87565b92915050565b600060208284031215612ec957612ec8612e73565b5b6000612ed784828501612e9e565b91505092915050565b612ee981612e7d565b82525050565b6000602082019050612f046000830184612ee0565b92915050565b600073ffffffffffffffffffffffffffffffffffffffff82169050919050565b6000612f3582612f0a565b9050919050565b612f4581612f2a565b8114612f5057600080fd5b50565b600081359050612f6281612f3c565b92915050565b600060208284031215612f7e57612f7d612e73565b5b6000612f8c84828501612f53565b91505092915050565b60008115159050919050565b612faa81612f95565b82525050565b6000602082019050612fc56000830184612fa1565b92915050565b600080fd5b600080fd5b6000601f19601f8301169050919050565b7f4e487b7100000000000000000000000000000000000000000000000000000000600052604160045260246000fd5b61301e82612fd5565b810181811067ffffffffffffffff8211171561303d5761303c612fe6565b5b80604052505050565b6000613050612e69565b905061305c8282613015565b919050565b600067ffffffffffffffff82111561307c5761307b612fe6565b5b61308582612fd5565b9050602081019050919050565b82818337600083830152505050565b60006130b46130af84613061565b613046565b9050828152602081018484840111156130d0576130cf612fd0565b5b6130db848285613092565b509392505050565b600082601f8301126130f8576130f7612fcb565b5b81356131088482602086016130a1565b91505092915050565b6000806040838503121561312857613127612e73565b5b600083013567ffffffffffffffff81111561314657613145612e78565b5b613152858286016130e3565b925050602061316385828601612e9e565b9150509250929050565b60006020828403121561318357613182612e73565b5b600082013567ffffffffffffffff8111156131a1576131a0612e78565b5b6131ad848285016130e3565b91505092915050565b6131bf81612f2a565b82525050565b60006020820190506131da60008301846131b6565b92915050565b600081519050919050565b600082825260208201905092915050565b6000819050602082019050919050565b600081519050919050565b600082825260208201905092915050565b60005b8381101561324657808201518184015260208101905061322b565b60008484015250505050565b600061325d8261320c565b6132678185613217565b9350613277818560208601613228565b61328081612fd5565b840191505092915050565b60006132978383613252565b905092915050565b6000602082019050919050565b60006132b7826131e0565b6132c181856131eb565b9350836020820285016132d3856131fc565b8060005b8581101561330f57848403895281516132f0858261328b565b94506132fb8361329f565b925060208a019950506001810190506132d7565b50829750879550505050505092915050565b6000602082019050818103600083015261333b81846132ac565b905092915050565b6000819050919050565b600061336861336361335e84612f0a565b613343565b612f0a565b9050919050565b600061337a8261334d565b9050919050565b600061338c8261336f565b9050919050565b61339c81613381565b82525050565b60006020820190506133b76000830184613393565b92915050565b600080604083850312156133d4576133d3612e73565b5b60006133e285828601612e9e565b92505060206133f385828601612f53565b9150509250929050565b600061340882612f0a565b9050919050565b613418816133fd565b82525050565b6000602082019050613433600083018461340f565b92915050565b600080604083850312156134505761344f612e73565b5b600061345e85828601612e9e565b925050602061346f85828601612e9e565b9150509250929050565b600080604083850312156134905761348f612e73565b5b600083013567ffffffffffffffff8111156134ae576134ad612e78565b5b6134ba858286016130e3565b92505060206134cb85828601612f53565b9150509250929050565b600081519050919050565b600082825260208201905092915050565b6000819050602082019050919050565b61350a81612e7d565b82525050565b600061351c8383613501565b60208301905092915050565b6000602082019050919050565b6000613540826134d5565b61354a81856134e0565b9350613555836134f1565b8060005b8381101561358657815161356d8882613510565b975061357883613528565b925050600181019050613559565b5085935050505092915050565b600060208201905081810360008301526135ad8184613535565b905092915050565b6135be81612f95565b81146135c957600080fd5b50565b6000813590506135db816135b5565b92915050565b600080604083850312156135f8576135f7612e73565b5b600061360685828601612e9e565b9250506020613617858286016135cc565b9150509250929050565b6000806040838503121561363857613637612e73565b5b600061364685828601612f53565b9250506020613657858286016135cc565b9150509250929050565b600082825260208201905092915050565b600061367d8261320c565b6136878185613661565b9350613697818560208601613228565b6136a081612fd5565b840191505092915050565b600060208201905081810360008301526136c58184613672565b905092915050565b60006136d88261336f565b9050919050565b6136e8816136cd565b82525050565b600060208201905061370360008301846136df565b92915050565b600081905092915050565b600061371f8261320c565b6137298185613709565b9350613739818560208601613228565b80840191505092915050565b60006137518284613714565b915081905092915050565b7f4d617463682063726561746f722063616e206e6f742062657400000000000000600082015250565b6000613792601983613661565b915061379d8261375c565b602082019050919050565b600060208201905081810360008301526137c181613785565b9050919050565b7f43686f6f736520612076616c6964206265742028312c32290000000000000000600082015250565b60006137fe601883613661565b9150613809826137c8565b602082019050919050565b6000602082019050818103600083015261382d816137f1565b9050919050565b7f4d61746368206973206f76657200000000000000000000000000000000000000600082015250565b600061386a600d83613661565b915061387582613834565b602082019050919050565b600060208201905081810360008301526138998161385d565b9050919050565b7f596f75722062657420697320616c7265616479207361766564206f722074686560008201527f2069642d6d6174636820697320696e76616c6964000000000000000000000000602082015250565b60006138fc603483613661565b9150613907826138a0565b604082019050919050565b6000602082019050818103600083015261392b816138ef565b9050919050565b60008151905061394181612e87565b92915050565b60006020828403121561395d5761395c612e73565b5b600061396b84828501613932565b91505092915050565b7f596f75206e656564203220746f6b656e73206174206c65617374000000000000600082015250565b60006139aa601a83613661565b91506139b582613974565b602082019050919050565b600060208201905081810360008301526139d98161399d565b9050919050565b7f4e487b7100000000000000000000000000000000000000000000000000000000600052601160045260246000fd5b6000613a1a82612e7d565b9150613a2583612e7d565b9250828202613a3381612e7d565b91508282048414831517613a4a57613a496139e0565b5b5092915050565b6000613a5c8261336f565b9050919050565b613a6c81613a51565b82525050565b6000606082019050613a8760008301866131b6565b613a946020830185613a63565b613aa16040830184612ee0565b949350505050565b600081519050613ab8816135b5565b92915050565b600060208284031215613ad457613ad3612e73565b5b6000613ae284828501613aa9565b91505092915050565b7f596f75206e65656420746f20617070726f766520746f6b656e2062616c616e6360008201527f6500000000000000000000000000000000000000000000000000000000000000602082015250565b6000613b47602183613661565b9150613b5282613aeb565b604082019050919050565b60006020820190508181036000830152613b7681613b3a565b9050919050565b6000613b8882612e7d565b9150613b9383612e7d565b9250828201905080821115613bab57613baa6139e0565b5b92915050565b60006060820190508181036000830152613bcb8186613672565b9050613bda60208301856131b6565b613be76040830184612ee0565b949350505050565b7f4e487b7100000000000000000000000000000000000000000000000000000000600052602260045260246000fd5b60006002820490506001821680613c3657607f821691505b602082108103613c4957613c48613bef565b5b50919050565b7f4e6f7420656e6f756768206574682070726f7669646564000000000000000000600082015250565b6000613c85601783613661565b9150613c9082613c4f565b602082019050919050565b60006020820190508181036000830152613cb481613c78565b9050919050565b7f4e487b7100000000000000000000000000000000000000000000000000000000600052601260045260246000fd5b6000613cf582612e7d565b9150613d0083612e7d565b925082613d1057613d0f613cbb565b5b828204905092915050565b7f4e6f7420656e6f7567682065746820617661696c61626c650000000000000000600082015250565b6000613d51601883613661565b9150613d5c82613d1b565b602082019050919050565b60006020820190508181036000830152613d8081613d44565b9050919050565b6000602082019050613d9c6000830184613a63565b92915050565b7f4e6f7420656e6f75676820746f6b656e7320617661696c61626c650000000000600082015250565b6000613dd8601b83613661565b9150613de382613da2565b602082019050919050565b60006020820190508181036000830152613e0781613dcb565b9050919050565b6000604082019050613e236000830185613a63565b613e306020830184612ee0565b9392505050565b600081519050613e4681612f3c565b92915050565b600060208284031215613e6257613e61612e73565b5b6000613e7084828501613e37565b91505092915050565b7f596f752061726520746865206f776e6572000000000000000000000000000000600082015250565b6000613eaf601183613661565b9150613eba82613e79565b602082019050919050565b60006020820190508181036000830152613ede81613ea2565b9050919050565b7f47657420617070726f76616c206f6620746865204e4654206669727374000000600082015250565b6000613f1b601d83613661565b9150613f2682613ee5565b602082019050919050565b60006020820190508181036000830152613f4a81613f0e565b9050919050565b7f4e4654206973206e6f7420666f722073616c6500000000000000000000000000600082015250565b6000613f87601383613661565b9150613f9282613f51565b602082019050919050565b60006020820190508181036000830152613fb681613f7a565b9050919050565b6000606082019050613fd260008301866131b6565b613fdf60208301856131b6565b613fec6040830184612ee0565b949350505050565b7f546f6b656e207472616e73666572206661696c65640000000000000000000000600082015250565b600061402a601583613661565b915061403582613ff4565b602082019050919050565b600060208201905081810360008301526140598161401d565b9050919050565b7f4e487b7100000000000000000000000000000000000000000000000000000000600052603260045260246000fd5b60006060820190506140a46000830186612ee0565b6140b160208301856131b6565b6140be60408301846131b6565b949350505050565b7f4f6e6c79207468652061646d696e732063616e20646f20746869732e00000000600082015250565b60006140fc601c83613661565b9150614107826140c6565b602082019050919050565b6000602082019050818103600083015261412b816140ef565b9050919050565b7f4d6174636820697320616c726561647920637265617465640000000000000000600082015250565b6000614168601883613661565b915061417382614132565b602082019050919050565b600060208201905081810360008301526141978161415b565b9050919050565b60008190508160005260206000209050919050565b60006020601f8301049050919050565b600082821b905092915050565b6000600883026142007fffffffffffffffffffffffffffffffffffffffffffffffffffffffffffffffff826141c3565b61420a86836141c3565b95508019841693508086168417925050509392505050565b600061423d61423861423384612e7d565b613343565b612e7d565b9050919050565b6000819050919050565b61425783614222565b61426b61426382614244565b8484546141d0565b825550505050565b600090565b614280614273565b61428b81848461424e565b505050565b5b818110156142af576142a4600082614278565b600181019050614291565b5050565b601f8211156142f4576142c58161419e565b6142ce846141b3565b810160208510156142dd578190505b6142f16142e9856141b3565b830182614290565b50505b505050565b600082821c905092915050565b6000614317600019846008026142f9565b1980831691505092915050565b60006143308383614306565b9150826002028217905092915050565b6143498261320c565b67ffffffffffffffff81111561436257614361612fe6565b5b61436c8254613c1e565b6143778282856142b3565b600060209050601f8311600181146143aa5760008415614398578287015190505b6143a28582614324565b86555061440a565b601f1984166143b88661419e565b60005b828110156143e0578489015182556001820191506020850194506020810190506143bb565b868310156143fd57848901516143f9601f891682614306565b8355505b6001600288020188555050505b505050505050565b7f4e6f74206574682066756e647300000000000000000000000000000000000000600082015250565b6000614448600d83613661565b915061445382614412565b602082019050919050565b600060208201905081810360008301526144778161443b565b9050919050565b600060408201905061449360008301856131b6565b6144a06020830184612ee0565b9392505050565b7f4d61746368206973206e6f74206f766572000000000000000000000000000000600082015250565b60006144dd601183613661565b91506144e8826144a7565b602082019050919050565b6000602082019050818103600083015261450c816144d0565b9050919050565b7f4f6e6c79206f776e65722063616e20646f20746869732e000000000000000000600082015250565b6000614549601783613661565b915061455482614513565b602082019050919050565b600060208201905081810360008301526145788161453c565b9050919050565b7f596f757220737461746520697320616c72656164792073617665640000000000600082015250565b60006145b5601b83613661565b91506145c08261457f565b602082019050919050565b600060208201905081810360008301526145e4816145a8565b9050919050565b7f4f6e6c79206d617463682063726561746f722063616e20636c6f73652069742e600082015250565b6000614621602083613661565b915061462c826145eb565b602082019050919050565b6000602082019050818103600083015261465081614614565b9050919050565b600081905092915050565b60008190508160005260206000209050919050565b6000815461468481613c1e565b61468e8186614657565b945060018216600081146146a957600181146146be576146f1565b60ff19831686528115158202860193506146f1565b6146c785614662565b60005b838110156146e9578154818901526001820191506020810190506146ca565b838801955050505b50505092915050565b60006147068284614677565b915081905092915050565b600061471c82612e7d565b91507fffffffffffffffffffffffffffffffffffffffffffffffffffffffffffffffff820361474e5761474d6139e0565b5b60018201905091905056fea2646970667358221220553572846c5319d072a650756654a3383414956cefa2f3c8b5d48a1c88b761e764736f6c63430008130033",
  "immutableReferences": {},
  "source": "// SPDX-License-Identifier: GPL-3.0\npragma solidity ^0.8.1;\n\nimport \"@openzeppelin/contracts/token/ERC721/ERC721.sol\";\nimport \"@openzeppelin/contracts/token/ERC20/IERC20.sol\";\n\n\ncontract Manager {\n\n    //Admins\n    mapping(address => bool) public _admins;\n    // Direccin para recibir forndos \n    address payable public  owner;\n\n    //Mapping de direcciones y apuestas\n    mapping(string => mapping(address => uint256)) public _matches; \n    mapping(string => address) public _matchCreators;\n    string[] public matches_ids;\n    mapping(string => uint256) public _bets;\n\n    //Precio de apuesta (n tokensERC20)\n    uint256 public betPrice;\n\n    // Variables token - ERC20\n    IERC20 public token;\n    uint256 public tokenPrice;\n\n    //Variables NFT - ERC721\n    IERC721 public nft;\n    mapping(uint256 => mapping(address => uint256)) public _catalog;    \n    mapping(uint256 => bool) public _purchasable;\n    uint256[] public _catalog_ids;\n\n\n    //Eventos \n    event TokenSold(address user,uint256 amount);\n    event NFTsold(uint256 _tokenId, address from, address to);\n    event BetSaved(string id_match,address user, uint256 bet);\n\n    modifier onlyAdmins {\n            require(_admins[msg.sender] == true, \"Only the admins can do this.\"); //Only the owner can register evidences.\n            _;\n    }\n\n    constructor(address _tokenAddress, address _nftAddress) {\n        //General\n        _admins[msg.sender] = true;\n        owner = payable(address(this));\n        //Manager\n        _matches[\"Q1a: Real Madrid - Chelsea\"][msg.sender] = 0;\n        _matches[\"Q1b: FC Bayern - Manchester City\"][msg.sender] = 0;\n        _matches[\"Q2a: Benfica - Inter Milan\"][msg.sender] = 0;\n        _matches[\"Q2b: AC Milan - Napoli\"][msg.sender] = 0;\n        _matchCreators[\"Q1a: Real Madrid - Chelsea\"] = msg.sender;\n        _matchCreators[\"Q1b: FC Bayern - Manchester City\"] = msg.sender;\n        _matchCreators[\"Q2a: Benfica - Inter Milan\"] = msg.sender;\n        _matchCreators[\"Q2b: AC Milan - Napoli\"] = msg.sender;\n        matches_ids.push(\"Q1a: Real Madrid - Chelsea\");\n        matches_ids.push(\"Q1b: FC Bayern - Manchester City\");\n        matches_ids.push(\"Q2a: Benfica - Inter Milan\");\n        matches_ids.push(\"Q2b: AC Milan - Napoli\");\n        _bets[\"Q1a: Real Madrid - Chelsea\"] = 0;\n        _bets[\"Q1b: FC Bayern - Manchester City\"] = 0;\n        _bets[\"Q2a: Benfica - Inter Milan\"] = 0;\n        _bets[\"Q2b: AC Milan - Napoli\"] = 0;\n        betPrice = 2;\n        //Token\n        token = IERC20(_tokenAddress);\n        tokenPrice = 10**15; // 1000 token ERC20 vale 1 token nativos - \n    \n        //NFT\n        nft = IERC721(_nftAddress);\n        _catalog[0][msg.sender] = 10;\n        _catalog[1][msg.sender] = 20;\n        _catalog[2][msg.sender] = 30;\n        _purchasable[0] = true;\n        _purchasable[1] = true;\n        _purchasable[2] = true; \n        _catalog_ids.push(0);\n        _catalog_ids.push(1);\n        _catalog_ids.push(2);   \n\n    }\n\n    //Funciones write para usuarios\n\n    function storeBet (string memory id_match, uint256 winner) public {\n        require(_matchCreators[id_match] != msg.sender ,\"Match creator can not bet\");\n        require(winner == 1 || winner == 2 ,\"Choose a valid bet (1,2)\");\n        require(_matches[id_match][_matchCreators[id_match]] == 0 ,\"Match is over\");\n        require(checkUserbet(id_match,msg.sender) != winner,\"Your bet is already saved or the id-match is invalid\");\n        require(token.balanceOf(msg.sender) >= betPrice,\"You need 2 tokens at least\");\n        require(token.transferFrom(msg.sender,owner,betPrice*10**18),\"You need to approve token balance\");\n\n        // Si el usuario no ha apostado antes\n        if (_matches[id_match][msg.sender] == 0) {\n            _bets[id_match] += 1; \n        }\n        _matches[id_match][msg.sender] = winner;\n        \n        emit BetSaved(id_match,msg.sender, winner);\n               \n    }\n\n    function buyTokens(uint256 ethAmount) public payable {\n        require(ethAmount >= tokenPrice,\"Not enough eth provided\");\n        uint256 _tokenAmount = ethAmount/tokenPrice;\n        address payable sender = payable(msg.sender);\n        require(sender.balance >= ethAmount, \"Not enough eth available\");\n        require(token.balanceOf(owner) >= _tokenAmount* 1 ether, \"Not enough tokens available\");\n            \n        transferTokens(sender, _tokenAmount*1 ether); // llama a la funcin separada para transferir tokens\n        //transferEth(owner, ethAmount); // llama a la funcin separada para transferir ETH\n\n        emit TokenSold(sender, _tokenAmount);\n    }\n\n    function transferTokens(address recipient, uint256 tokenAmount) private {\n        require(token.transfer(recipient, tokenAmount), \"Token transfer failed\");\n    }\n\n    function transferEth(address payable recipient, uint256 amount) private {\n        recipient.transfer(amount);\n    }\n\n    function buyNFT(uint256 _tokenId) public {\n        address holder = payable(nft.ownerOf(_tokenId));\n        require(nft.ownerOf(_tokenId) != msg.sender,\"You are the owner\");\n        require(nft.getApproved(_tokenId) == owner,\"Get approval of the NFT first\");\n        require(_purchasable[_tokenId] == true, \"NFT is not for sale\"); \n        require(token.transferFrom(msg.sender, holder, _catalog[_tokenId][holder]), \"Token transfer failed\");\n\n\n        nft.transferFrom(holder, msg.sender, _tokenId);\n        \n        _catalog[_tokenId][msg.sender] = _catalog[_tokenId][holder];\n\n        delete _catalog[_tokenId][holder];\n        delete _catalog_ids[_tokenId];\n\n        _purchasable[_tokenId] = false;\n\n        emit NFTsold(_tokenId,holder,msg.sender);\n    }\n\n    function ListNFT(uint256 _tokenId, uint256 price) public {\n        require(nft.ownerOf(_tokenId) == msg.sender, \"Only owner can do this.\");\n\n        _catalog[_tokenId][msg.sender] = price;\n        _catalog_ids.push(_tokenId);\n        _purchasable[_tokenId] = true;\n\n    }\n\n    function changeStateSale (uint256 _tokenId, bool state) public {\n        require(nft.ownerOf(_tokenId) == msg.sender, \"Only owner can do this.\");\n        require(_purchasable[_tokenId] != state, \"Your state is already saved\");\n        _purchasable[_tokenId] = state;\n        delete _catalog_ids[_tokenId];\n\n    }\n\n    function changePrice (uint256 _tokenId, uint256 price) public {\n        require(nft.ownerOf(_tokenId) == msg.sender, \"Only owner can do this.\");\n        _catalog[_tokenId][msg.sender] = price;\n\n    }\n\n    // Funciones para administrados\n\n    function createMatch(string memory id_match) public onlyAdmins {\n            require (_matchCreators[id_match] == 0x0000000000000000000000000000000000000000,\"Match is already created\");\n            _matches[id_match][msg.sender] = 0;\n            _matchCreators[id_match] = msg.sender;\n            matches_ids.push(id_match); \n    }\n\n    function closeMatch(string memory id_match, uint256 winner) public onlyAdmins {\n        require(_matchCreators[id_match] == msg.sender, \"Only match creator can close it.\");\n        require(winner == 1 || winner == 2 ,\"Choose a valid bet (1,2)\");\n        require(_matches[id_match][_matchCreators[id_match]] == 0 ,\"Match is over\");\n        \n        _matches[id_match][msg.sender] = winner;\n        for (uint256 i = 0; i < matches_ids.length; i++) {\n            if (keccak256(bytes(matches_ids[i])) == keccak256(bytes(id_match))) {\n                delete matches_ids[i];\n            }\n        }\n\n    }\n\n\n    //Funciones de gestin del contrato\n\n    function ChangeAdminRole(address user, bool AdminRol) public onlyAdmins {\n\n        _admins[user] = AdminRol;\n    }\n\n    function setTokenPrice(uint256 _tokenPrice) public onlyAdmins{\n        tokenPrice = _tokenPrice;\n    }\n\n    function withdrawTokens() public onlyAdmins {\n        require(token.transfer(msg.sender, token.balanceOf(owner)), \"Token transfer failed\");\n    }\n\n    function withdrawEther() public onlyAdmins {\n        require(owner.balance != 0, \"Not eth funds\");\n        payable(msg.sender).transfer(owner.balance);\n    }\n\n    // Funciones view\n\n    function isAdmin(address user) public view returns (bool) {\n        return _admins[user];\n    }\n\n    function MatchCreator(string memory id_match) public view returns (address){\n        return (_matchCreators[id_match]); \n    }\n\n    function checkUserbet(string memory id_match, address user) public view returns (uint256){\n        return (_matches[id_match][user]); \n    }\n\n\n    function checkMatchResult(string memory id_match) public view returns (uint256){\n        require(_matches[id_match][_matchCreators[id_match]] != 0,\"Match is not over\");\n        return (_matches[id_match][_matchCreators[id_match]]); \n    } \n\n    function isNFTpurchasable(uint256 _tokenId) public view returns (bool) {\n        bool state = _purchasable[_tokenId];\n        return(state);\n    }\n\n    function priceOfNFT(uint256 _tokenId)public view returns (uint256) {\n        address holder = nft.ownerOf(_tokenId);\n        uint256 price = _catalog[_tokenId][holder];\n        return (price);\n    }\n\n    function getMatches() public view returns (string[] memory) {\n        return(matches_ids);        \n    }\n    function getCatalog() public view returns (uint256[] memory) {\n        return(_catalog_ids);        \n    }\n\n    // Funciones external payable    \n\n    receive() external payable {\n        //emit Received (msg.value);\n    }\n\n    fallback() external payable {\n        \n    }\n}\n",
  "sourcePath": "C:\\Users\\David\\Desktop\\dapp_M5-SP2\\contracts\\Manager.sol",
  "compiler": {
    "name": "solc",
    "version": "0.8.19+commit.7dd6d404.Emscripten.clang"
  },
  "schemaVersion": "3.4.13",
  "updatedAt": "2023-04-25T20:32:14.762Z",
  "networkType": "ethereum",
  "devdoc": {
    "kind": "dev",
    "methods": {},
    "version": 1
  },
  "userdoc": {
    "kind": "user",
    "methods": {},
    "version": 1
  }
}