{
  "contractName": "NFT",
  "abi": [
    {
      "inputs": [],
      "stateMutability": "nonpayable",
      "type": "constructor"
    },
    {
      "anonymous": false,
      "inputs": [
        {
          "indexed": true,
          "internalType": "address",
          "name": "owner",
          "type": "address"
        },
        {
          "indexed": true,
          "internalType": "address",
          "name": "approved",
          "type": "address"
        },
        {
          "indexed": true,
          "internalType": "uint256",
          "name": "tokenId",
          "type": "uint256"
        }
      ],
      "name": "Approval",
      "type": "event"
    },
    {
      "anonymous": false,
      "inputs": [
        {
          "indexed": true,
          "internalType": "address",
          "name": "owner",
          "type": "address"
        },
        {
          "indexed": true,
          "internalType": "address",
          "name": "operator",
          "type": "address"
        },
        {
          "indexed": false,
          "internalType": "bool",
          "name": "approved",
          "type": "bool"
        }
      ],
      "name": "ApprovalForAll",
      "type": "event"
    },
    {
      "anonymous": false,
      "inputs": [
        {
          "indexed": true,
          "internalType": "address",
          "name": "previousOwner",
          "type": "address"
        },
        {
          "indexed": true,
          "internalType": "address",
          "name": "newOwner",
          "type": "address"
        }
      ],
      "name": "OwnershipTransferred",
      "type": "event"
    },
    {
      "anonymous": false,
      "inputs": [
        {
          "indexed": true,
          "internalType": "address",
          "name": "from",
          "type": "address"
        },
        {
          "indexed": true,
          "internalType": "address",
          "name": "to",
          "type": "address"
        },
        {
          "indexed": true,
          "internalType": "uint256",
          "name": "tokenId",
          "type": "uint256"
        }
      ],
      "name": "Transfer",
      "type": "event"
    },
    {
      "inputs": [
        {
          "internalType": "address",
          "name": "",
          "type": "address"
        }
      ],
      "name": "_admins",
      "outputs": [
        {
          "internalType": "bool",
          "name": "",
          "type": "bool"
        }
      ],
      "stateMutability": "view",
      "type": "function",
      "constant": true
    },
    {
      "inputs": [
        {
          "internalType": "address",
          "name": "to",
          "type": "address"
        },
        {
          "internalType": "uint256",
          "name": "tokenId",
          "type": "uint256"
        }
      ],
      "name": "approve",
      "outputs": [],
      "stateMutability": "nonpayable",
      "type": "function"
    },
    {
      "inputs": [
        {
          "internalType": "address",
          "name": "owner",
          "type": "address"
        }
      ],
      "name": "balanceOf",
      "outputs": [
        {
          "internalType": "uint256",
          "name": "",
          "type": "uint256"
        }
      ],
      "stateMutability": "view",
      "type": "function",
      "constant": true
    },
    {
      "inputs": [
        {
          "internalType": "uint256",
          "name": "tokenId",
          "type": "uint256"
        }
      ],
      "name": "getApproved",
      "outputs": [
        {
          "internalType": "address",
          "name": "",
          "type": "address"
        }
      ],
      "stateMutability": "view",
      "type": "function",
      "constant": true
    },
    {
      "inputs": [
        {
          "internalType": "address",
          "name": "owner",
          "type": "address"
        },
        {
          "internalType": "address",
          "name": "operator",
          "type": "address"
        }
      ],
      "name": "isApprovedForAll",
      "outputs": [
        {
          "internalType": "bool",
          "name": "",
          "type": "bool"
        }
      ],
      "stateMutability": "view",
      "type": "function",
      "constant": true
    },
    {
      "inputs": [],
      "name": "name",
      "outputs": [
        {
          "internalType": "string",
          "name": "",
          "type": "string"
        }
      ],
      "stateMutability": "view",
      "type": "function",
      "constant": true
    },
    {
      "inputs": [],
      "name": "owner",
      "outputs": [
        {
          "internalType": "address",
          "name": "",
          "type": "address"
        }
      ],
      "stateMutability": "view",
      "type": "function",
      "constant": true
    },
    {
      "inputs": [
        {
          "internalType": "uint256",
          "name": "tokenId",
          "type": "uint256"
        }
      ],
      "name": "ownerOf",
      "outputs": [
        {
          "internalType": "address",
          "name": "",
          "type": "address"
        }
      ],
      "stateMutability": "view",
      "type": "function",
      "constant": true
    },
    {
      "inputs": [],
      "name": "renounceOwnership",
      "outputs": [],
      "stateMutability": "nonpayable",
      "type": "function"
    },
    {
      "inputs": [
        {
          "internalType": "address",
          "name": "from",
          "type": "address"
        },
        {
          "internalType": "address",
          "name": "to",
          "type": "address"
        },
        {
          "internalType": "uint256",
          "name": "tokenId",
          "type": "uint256"
        }
      ],
      "name": "safeTransferFrom",
      "outputs": [],
      "stateMutability": "nonpayable",
      "type": "function"
    },
    {
      "inputs": [
        {
          "internalType": "address",
          "name": "from",
          "type": "address"
        },
        {
          "internalType": "address",
          "name": "to",
          "type": "address"
        },
        {
          "internalType": "uint256",
          "name": "tokenId",
          "type": "uint256"
        },
        {
          "internalType": "bytes",
          "name": "data",
          "type": "bytes"
        }
      ],
      "name": "safeTransferFrom",
      "outputs": [],
      "stateMutability": "nonpayable",
      "type": "function"
    },
    {
      "inputs": [
        {
          "internalType": "address",
          "name": "operator",
          "type": "address"
        },
        {
          "internalType": "bool",
          "name": "approved",
          "type": "bool"
        }
      ],
      "name": "setApprovalForAll",
      "outputs": [],
      "stateMutability": "nonpayable",
      "type": "function"
    },
    {
      "inputs": [
        {
          "internalType": "bytes4",
          "name": "interfaceId",
          "type": "bytes4"
        }
      ],
      "name": "supportsInterface",
      "outputs": [
        {
          "internalType": "bool",
          "name": "",
          "type": "bool"
        }
      ],
      "stateMutability": "view",
      "type": "function",
      "constant": true
    },
    {
      "inputs": [],
      "name": "symbol",
      "outputs": [
        {
          "internalType": "string",
          "name": "",
          "type": "string"
        }
      ],
      "stateMutability": "view",
      "type": "function",
      "constant": true
    },
    {
      "inputs": [
        {
          "internalType": "uint256",
          "name": "tokenId",
          "type": "uint256"
        }
      ],
      "name": "tokenURI",
      "outputs": [
        {
          "internalType": "string",
          "name": "",
          "type": "string"
        }
      ],
      "stateMutability": "view",
      "type": "function",
      "constant": true
    },
    {
      "inputs": [
        {
          "internalType": "address",
          "name": "from",
          "type": "address"
        },
        {
          "internalType": "address",
          "name": "to",
          "type": "address"
        },
        {
          "internalType": "uint256",
          "name": "tokenId",
          "type": "uint256"
        }
      ],
      "name": "transferFrom",
      "outputs": [],
      "stateMutability": "nonpayable",
      "type": "function"
    },
    {
      "inputs": [
        {
          "internalType": "address",
          "name": "newOwner",
          "type": "address"
        }
      ],
      "name": "transferOwnership",
      "outputs": [],
      "stateMutability": "nonpayable",
      "type": "function"
    },
    {
      "inputs": [
        {
          "internalType": "address",
          "name": "to",
          "type": "address"
        },
        {
          "internalType": "uint256",
          "name": "tokenId",
          "type": "uint256"
        }
      ],
      "name": "safeMint",
      "outputs": [],
      "stateMutability": "nonpayable",
      "type": "function"
    },
    {
      "inputs": [
        {
          "internalType": "address",
          "name": "user",
          "type": "address"
        },
        {
          "internalType": "bool",
          "name": "AdminRol",
          "type": "bool"
        }
      ],
      "name": "ChangeAdminRole",
      "outputs": [],
      "stateMutability": "nonpayable",
      "type": "function"
    },
    {
      "inputs": [
        {
          "internalType": "address",
          "name": "user",
          "type": "address"
        }
      ],
      "name": "isAdmin",
      "outputs": [
        {
          "internalType": "bool",
          "name": "",
          "type": "bool"
        }
      ],
      "stateMutability": "view",
      "type": "function",
      "constant": true
    }
  ],
  "bytecode": "0x60806040523480156200001157600080fd5b506040518060400160405280600981526020017f4265744e465437323100000000000000000000000000000000000000000000008152506040518060400160405280600681526020017f425454373231000000000000000000000000000000000000000000000000000081525081600090816200008f9190620009d6565b508060019081620000a19190620009d6565b505050620000c4620000b86200015b60201b60201c565b6200016360201b60201c565b620000d73360006200022960201b60201c565b620000ea3360016200022960201b60201c565b620000fd3360026200022960201b60201c565b6001600760003373ffffffffffffffffffffffffffffffffffffffff1673ffffffffffffffffffffffffffffffffffffffff16815260200190815260200160002060006101000a81548160ff02191690831515021790555062000e22565b600033905090565b6000600660009054906101000a900473ffffffffffffffffffffffffffffffffffffffff16905081600660006101000a81548173ffffffffffffffffffffffffffffffffffffffff021916908373ffffffffffffffffffffffffffffffffffffffff1602179055508173ffffffffffffffffffffffffffffffffffffffff168173ffffffffffffffffffffffffffffffffffffffff167f8be0079c531659141344cd1fd0a4f28419497f9722a3daafe3b4186f6b6457e060405160405180910390a35050565b6200024b8282604051806020016040528060008152506200024f60201b60201c565b5050565b620002618383620002bd60201b60201c565b6200027660008484846200050360201b60201c565b620002b8576040517f08c379a0000000000000000000000000000000000000000000000000000000008152600401620002af9062000b44565b60405180910390fd5b505050565b600073ffffffffffffffffffffffffffffffffffffffff168273ffffffffffffffffffffffffffffffffffffffff16036200032f576040517f08c379a0000000000000000000000000000000000000000000000000000000008152600401620003269062000bb6565b60405180910390fd5b6200034081620006a760201b60201c565b1562000383576040517f08c379a00000000000000000000000000000000000000000000000000000000081526004016200037a9062000c28565b60405180910390fd5b62000399600083836001620006f060201b60201c565b620003aa81620006a760201b60201c565b15620003ed576040517f08c379a0000000000000000000000000000000000000000000000000000000008152600401620003e49062000c28565b60405180910390fd5b6001600360008473ffffffffffffffffffffffffffffffffffffffff1673ffffffffffffffffffffffffffffffffffffffff16815260200190815260200160002060008282540192505081905550816002600083815260200190815260200160002060006101000a81548173ffffffffffffffffffffffffffffffffffffffff021916908373ffffffffffffffffffffffffffffffffffffffff160217905550808273ffffffffffffffffffffffffffffffffffffffff16600073ffffffffffffffffffffffffffffffffffffffff167fddf252ad1be2c89b69c2b068fc378daa952ba7f163c4a11628f55a4df523b3ef60405160405180910390a4620004ff600083836001620006f660201b60201c565b5050565b60006200052c8473ffffffffffffffffffffffffffffffffffffffff16620006fc60201b60201c565b156200069a578373ffffffffffffffffffffffffffffffffffffffff1663150b7a026200055e6200015b60201b60201c565b8786866040518563ffffffff1660e01b815260040162000582949392919062000d3a565b6020604051808303816000875af1925050508015620005c157506040513d601f19601f82011682018060405250810190620005be919062000df0565b60015b62000649573d8060008114620005f4576040519150601f19603f3d011682016040523d82523d6000602084013e620005f9565b606091505b50600081510362000641576040517f08c379a0000000000000000000000000000000000000000000000000000000008152600401620006389062000b44565b60405180910390fd5b805181602001fd5b63150b7a0260e01b7bffffffffffffffffffffffffffffffffffffffffffffffffffffffff1916817bffffffffffffffffffffffffffffffffffffffffffffffffffffffff1916149150506200069f565b600190505b949350505050565b60008073ffffffffffffffffffffffffffffffffffffffff16620006d1836200071f60201b60201c565b73ffffffffffffffffffffffffffffffffffffffff1614159050919050565b50505050565b50505050565b6000808273ffffffffffffffffffffffffffffffffffffffff163b119050919050565b60006002600083815260200190815260200160002060009054906101000a900473ffffffffffffffffffffffffffffffffffffffff169050919050565b600081519050919050565b7f4e487b7100000000000000000000000000000000000000000000000000000000600052604160045260246000fd5b7f4e487b7100000000000000000000000000000000000000000000000000000000600052602260045260246000fd5b60006002820490506001821680620007de57607f821691505b602082108103620007f457620007f362000796565b5b50919050565b60008190508160005260206000209050919050565b60006020601f8301049050919050565b600082821b905092915050565b6000600883026200085e7fffffffffffffffffffffffffffffffffffffffffffffffffffffffffffffffff826200081f565b6200086a86836200081f565b95508019841693508086168417925050509392505050565b6000819050919050565b6000819050919050565b6000620008b7620008b1620008ab8462000882565b6200088c565b62000882565b9050919050565b6000819050919050565b620008d38362000896565b620008eb620008e282620008be565b8484546200082c565b825550505050565b600090565b62000902620008f3565b6200090f818484620008c8565b505050565b5b8181101562000937576200092b600082620008f8565b60018101905062000915565b5050565b601f82111562000986576200095081620007fa565b6200095b846200080f565b810160208510156200096b578190505b620009836200097a856200080f565b83018262000914565b50505b505050565b600082821c905092915050565b6000620009ab600019846008026200098b565b1980831691505092915050565b6000620009c6838362000998565b9150826002028217905092915050565b620009e1826200075c565b67ffffffffffffffff811115620009fd57620009fc62000767565b5b62000a098254620007c5565b62000a168282856200093b565b600060209050601f83116001811462000a4e576000841562000a39578287015190505b62000a458582620009b8565b86555062000ab5565b601f19841662000a5e86620007fa565b60005b8281101562000a885784890151825560018201915060208501945060208101905062000a61565b8683101562000aa8578489015162000aa4601f89168262000998565b8355505b6001600288020188555050505b505050505050565b600082825260208201905092915050565b7f4552433732313a207472616e7366657220746f206e6f6e20455243373231526560008201527f63656976657220696d706c656d656e7465720000000000000000000000000000602082015250565b600062000b2c60328362000abd565b915062000b398262000ace565b604082019050919050565b6000602082019050818103600083015262000b5f8162000b1d565b9050919050565b7f4552433732313a206d696e7420746f20746865207a65726f2061646472657373600082015250565b600062000b9e60208362000abd565b915062000bab8262000b66565b602082019050919050565b6000602082019050818103600083015262000bd18162000b8f565b9050919050565b7f4552433732313a20746f6b656e20616c7265616479206d696e74656400000000600082015250565b600062000c10601c8362000abd565b915062000c1d8262000bd8565b602082019050919050565b6000602082019050818103600083015262000c438162000c01565b9050919050565b600073ffffffffffffffffffffffffffffffffffffffff82169050919050565b600062000c778262000c4a565b9050919050565b62000c898162000c6a565b82525050565b62000c9a8162000882565b82525050565b600081519050919050565b600082825260208201905092915050565b60005b8381101562000cdc57808201518184015260208101905062000cbf565b60008484015250505050565b6000601f19601f8301169050919050565b600062000d068262000ca0565b62000d12818562000cab565b935062000d2481856020860162000cbc565b62000d2f8162000ce8565b840191505092915050565b600060808201905062000d51600083018762000c7e565b62000d60602083018662000c7e565b62000d6f604083018562000c8f565b818103606083015262000d83818462000cf9565b905095945050505050565b600080fd5b60007fffffffff0000000000000000000000000000000000000000000000000000000082169050919050565b62000dca8162000d93565b811462000dd657600080fd5b50565b60008151905062000dea8162000dbf565b92915050565b60006020828403121562000e095762000e0862000d8e565b5b600062000e198482850162000dd9565b91505092915050565b612ba78062000e326000396000f3fe608060405234801561001057600080fd5b506004361061012c5760003560e01c8063715018a6116100ad578063b88d4fde11610071578063b88d4fde14610341578063c87b56dd1461035d578063e985e9c51461038d578063eafa53b2146103bd578063f2fde38b146103d95761012c565b8063715018a6146102c35780638da5cb5b146102cd57806395d89b41146102eb578063a144819414610309578063a22cb465146103255761012c565b806323b872dd116100f457806323b872dd146101fb57806324d7806c1461021757806342842e0e146102475780636352211e1461026357806370a08231146102935761012c565b806301ffc9a71461013157806306fdde0314610161578063081812fc1461017f578063095ea7b3146101af5780630d5e2053146101cb575b600080fd5b61014b60048036038101906101469190611ccd565b6103f5565b6040516101589190611d15565b60405180910390f35b6101696104d7565b6040516101769190611dc0565b60405180910390f35b61019960048036038101906101949190611e18565b610569565b6040516101a69190611e86565b60405180910390f35b6101c960048036038101906101c49190611ecd565b6105af565b005b6101e560048036038101906101e09190611f0d565b6106c6565b6040516101f29190611d15565b60405180910390f35b61021560048036038101906102109190611f3a565b6106e6565b005b610231600480360381019061022c9190611f0d565b610746565b60405161023e9190611d15565b60405180910390f35b610261600480360381019061025c9190611f3a565b61079c565b005b61027d60048036038101906102789190611e18565b6107bc565b60405161028a9190611e86565b60405180910390f35b6102ad60048036038101906102a89190611f0d565b610842565b6040516102ba9190611f9c565b60405180910390f35b6102cb6108f9565b005b6102d561090d565b6040516102e29190611e86565b60405180910390f35b6102f3610937565b6040516103009190611dc0565b60405180910390f35b610323600480360381019061031e9190611ecd565b6109c9565b005b61033f600480360381019061033a9190611fe3565b610a6a565b005b61035b60048036038101906103569190612158565b610a80565b005b61037760048036038101906103729190611e18565b610ae2565b6040516103849190611dc0565b60405180910390f35b6103a760048036038101906103a291906121db565b610b4a565b6040516103b49190611d15565b60405180910390f35b6103d760048036038101906103d29190611fe3565b610bde565b005b6103f360048036038101906103ee9190611f0d565b610ccc565b005b60007f80ac58cd000000000000000000000000000000000000000000000000000000007bffffffffffffffffffffffffffffffffffffffffffffffffffffffff1916827bffffffffffffffffffffffffffffffffffffffffffffffffffffffff191614806104c057507f5b5e139f000000000000000000000000000000000000000000000000000000007bffffffffffffffffffffffffffffffffffffffffffffffffffffffff1916827bffffffffffffffffffffffffffffffffffffffffffffffffffffffff1916145b806104d057506104cf82610d4f565b5b9050919050565b6060600080546104e69061224a565b80601f01602080910402602001604051908101604052809291908181526020018280546105129061224a565b801561055f5780601f106105345761010080835404028352916020019161055f565b820191906000526020600020905b81548152906001019060200180831161054257829003601f168201915b5050505050905090565b600061057482610db9565b6004600083815260200190815260200160002060009054906101000a900473ffffffffffffffffffffffffffffffffffffffff169050919050565b60006105ba826107bc565b90508073ffffffffffffffffffffffffffffffffffffffff168373ffffffffffffffffffffffffffffffffffffffff160361062a576040517f08c379a0000000000000000000000000000000000000000000000000000000008152600401610621906122ed565b60405180910390fd5b8073ffffffffffffffffffffffffffffffffffffffff16610649610e04565b73ffffffffffffffffffffffffffffffffffffffff161480610678575061067781610672610e04565b610b4a565b5b6106b7576040517f08c379a00000000000000000000000000000000000000000000000000000000081526004016106ae9061237f565b60405180910390fd5b6106c18383610e0c565b505050565b60076020528060005260406000206000915054906101000a900460ff1681565b6106f76106f1610e04565b82610ec5565b610736576040517f08c379a000000000000000000000000000000000000000000000000000000000815260040161072d90612411565b60405180910390fd5b610741838383610f5a565b505050565b6000600760008373ffffffffffffffffffffffffffffffffffffffff1673ffffffffffffffffffffffffffffffffffffffff16815260200190815260200160002060009054906101000a900460ff169050919050565b6107b783838360405180602001604052806000815250610a80565b505050565b6000806107c883611253565b9050600073ffffffffffffffffffffffffffffffffffffffff168173ffffffffffffffffffffffffffffffffffffffff1603610839576040517f08c379a00000000000000000000000000000000000000000000000000000000081526004016108309061247d565b60405180910390fd5b80915050919050565b60008073ffffffffffffffffffffffffffffffffffffffff168273ffffffffffffffffffffffffffffffffffffffff16036108b2576040517f08c379a00000000000000000000000000000000000000000000000000000000081526004016108a99061250f565b60405180910390fd5b600360008373ffffffffffffffffffffffffffffffffffffffff1673ffffffffffffffffffffffffffffffffffffffff168152602001908152602001600020549050919050565b610901611290565b61090b600061130e565b565b6000600660009054906101000a900473ffffffffffffffffffffffffffffffffffffffff16905090565b6060600180546109469061224a565b80601f01602080910402602001604051908101604052809291908181526020018280546109729061224a565b80156109bf5780601f10610994576101008083540402835291602001916109bf565b820191906000526020600020905b8154815290600101906020018083116109a257829003601f168201915b5050505050905090565b60011515600760003373ffffffffffffffffffffffffffffffffffffffff1673ffffffffffffffffffffffffffffffffffffffff16815260200190815260200160002060009054906101000a900460ff16151514610a5c576040517f08c379a0000000000000000000000000000000000000000000000000000000008152600401610a539061257b565b60405180910390fd5b610a6682826113d4565b5050565b610a7c610a75610e04565b83836113f2565b5050565b610a91610a8b610e04565b83610ec5565b610ad0576040517f08c379a0000000000000000000000000000000000000000000000000000000008152600401610ac790612411565b60405180910390fd5b610adc8484848461155e565b50505050565b6060610aed82610db9565b6000610af76115ba565b90506000815111610b175760405180602001604052806000815250610b42565b80610b21846115d1565b604051602001610b329291906125d7565b6040516020818303038152906040525b915050919050565b6000600560008473ffffffffffffffffffffffffffffffffffffffff1673ffffffffffffffffffffffffffffffffffffffff16815260200190815260200160002060008373ffffffffffffffffffffffffffffffffffffffff1673ffffffffffffffffffffffffffffffffffffffff16815260200190815260200160002060009054906101000a900460ff16905092915050565b60011515600760003373ffffffffffffffffffffffffffffffffffffffff1673ffffffffffffffffffffffffffffffffffffffff16815260200190815260200160002060009054906101000a900460ff16151514610c71576040517f08c379a0000000000000000000000000000000000000000000000000000000008152600401610c6890612647565b60405180910390fd5b80600760008473ffffffffffffffffffffffffffffffffffffffff1673ffffffffffffffffffffffffffffffffffffffff16815260200190815260200160002060006101000a81548160ff0219169083151502179055505050565b610cd4611290565b600073ffffffffffffffffffffffffffffffffffffffff168173ffffffffffffffffffffffffffffffffffffffff1603610d43576040517f08c379a0000000000000000000000000000000000000000000000000000000008152600401610d3a906126d9565b60405180910390fd5b610d4c8161130e565b50565b60007f01ffc9a7000000000000000000000000000000000000000000000000000000007bffffffffffffffffffffffffffffffffffffffffffffffffffffffff1916827bffffffffffffffffffffffffffffffffffffffffffffffffffffffff1916149050919050565b610dc28161169f565b610e01576040517f08c379a0000000000000000000000000000000000000000000000000000000008152600401610df89061247d565b60405180910390fd5b50565b600033905090565b816004600083815260200190815260200160002060006101000a81548173ffffffffffffffffffffffffffffffffffffffff021916908373ffffffffffffffffffffffffffffffffffffffff160217905550808273ffffffffffffffffffffffffffffffffffffffff16610e7f836107bc565b73ffffffffffffffffffffffffffffffffffffffff167f8c5be1e5ebec7d5bd14f71427d1e84f3dd0314c0f7b2291e5b200ac8c7c3b92560405160405180910390a45050565b600080610ed1836107bc565b90508073ffffffffffffffffffffffffffffffffffffffff168473ffffffffffffffffffffffffffffffffffffffff161480610f135750610f128185610b4a565b5b80610f5157508373ffffffffffffffffffffffffffffffffffffffff16610f3984610569565b73ffffffffffffffffffffffffffffffffffffffff16145b91505092915050565b8273ffffffffffffffffffffffffffffffffffffffff16610f7a826107bc565b73ffffffffffffffffffffffffffffffffffffffff1614610fd0576040517f08c379a0000000000000000000000000000000000000000000000000000000008152600401610fc79061276b565b60405180910390fd5b600073ffffffffffffffffffffffffffffffffffffffff168273ffffffffffffffffffffffffffffffffffffffff160361103f576040517f08c379a0000000000000000000000000000000000000000000000000000000008152600401611036906127fd565b60405180910390fd5b61104c83838360016116e0565b8273ffffffffffffffffffffffffffffffffffffffff1661106c826107bc565b73ffffffffffffffffffffffffffffffffffffffff16146110c2576040517f08c379a00000000000000000000000000000000000000000000000000000000081526004016110b99061276b565b60405180910390fd5b6004600082815260200190815260200160002060006101000a81549073ffffffffffffffffffffffffffffffffffffffff02191690556001600360008573ffffffffffffffffffffffffffffffffffffffff1673ffffffffffffffffffffffffffffffffffffffff168152602001908152602001600020600082825403925050819055506001600360008473ffffffffffffffffffffffffffffffffffffffff1673ffffffffffffffffffffffffffffffffffffffff16815260200190815260200160002060008282540192505081905550816002600083815260200190815260200160002060006101000a81548173ffffffffffffffffffffffffffffffffffffffff021916908373ffffffffffffffffffffffffffffffffffffffff160217905550808273ffffffffffffffffffffffffffffffffffffffff168473ffffffffffffffffffffffffffffffffffffffff167fddf252ad1be2c89b69c2b068fc378daa952ba7f163c4a11628f55a4df523b3ef60405160405180910390a461124e83838360016116e6565b505050565b60006002600083815260200190815260200160002060009054906101000a900473ffffffffffffffffffffffffffffffffffffffff169050919050565b611298610e04565b73ffffffffffffffffffffffffffffffffffffffff166112b661090d565b73ffffffffffffffffffffffffffffffffffffffff161461130c576040517f08c379a000000000000000000000000000000000000000000000000000000000815260040161130390612869565b60405180910390fd5b565b6000600660009054906101000a900473ffffffffffffffffffffffffffffffffffffffff16905081600660006101000a81548173ffffffffffffffffffffffffffffffffffffffff021916908373ffffffffffffffffffffffffffffffffffffffff1602179055508173ffffffffffffffffffffffffffffffffffffffff168173ffffffffffffffffffffffffffffffffffffffff167f8be0079c531659141344cd1fd0a4f28419497f9722a3daafe3b4186f6b6457e060405160405180910390a35050565b6113ee8282604051806020016040528060008152506116ec565b5050565b8173ffffffffffffffffffffffffffffffffffffffff168373ffffffffffffffffffffffffffffffffffffffff1603611460576040517f08c379a0000000000000000000000000000000000000000000000000000000008152600401611457906128d5565b60405180910390fd5b80600560008573ffffffffffffffffffffffffffffffffffffffff1673ffffffffffffffffffffffffffffffffffffffff16815260200190815260200160002060008473ffffffffffffffffffffffffffffffffffffffff1673ffffffffffffffffffffffffffffffffffffffff16815260200190815260200160002060006101000a81548160ff0219169083151502179055508173ffffffffffffffffffffffffffffffffffffffff168373ffffffffffffffffffffffffffffffffffffffff167f17307eab39ab6107e8899845ad3d59bd9653f200f220920489ca2b5937696c31836040516115519190611d15565b60405180910390a3505050565b611569848484610f5a565b61157584848484611747565b6115b4576040517f08c379a00000000000000000000000000000000000000000000000000000000081526004016115ab90612967565b60405180910390fd5b50505050565b606060405180602001604052806000815250905090565b6060600060016115e0846118ce565b01905060008167ffffffffffffffff8111156115ff576115fe61202d565b5b6040519080825280601f01601f1916602001820160405280156116315781602001600182028036833780820191505090505b509050600082602001820190505b600115611694578080600190039150507f3031323334353637383961626364656600000000000000000000000000000000600a86061a8153600a858161168857611687612987565b5b0494506000850361163f575b819350505050919050565b60008073ffffffffffffffffffffffffffffffffffffffff166116c183611253565b73ffffffffffffffffffffffffffffffffffffffff1614159050919050565b50505050565b50505050565b6116f68383611a21565b6117036000848484611747565b611742576040517f08c379a000000000000000000000000000000000000000000000000000000000815260040161173990612967565b60405180910390fd5b505050565b60006117688473ffffffffffffffffffffffffffffffffffffffff16611c3e565b156118c1578373ffffffffffffffffffffffffffffffffffffffff1663150b7a02611791610e04565b8786866040518563ffffffff1660e01b81526004016117b39493929190612a0b565b6020604051808303816000875af19250505080156117ef57506040513d601f19601f820116820180604052508101906117ec9190612a6c565b60015b611871573d806000811461181f576040519150601f19603f3d011682016040523d82523d6000602084013e611824565b606091505b506000815103611869576040517f08c379a000000000000000000000000000000000000000000000000000000000815260040161186090612967565b60405180910390fd5b805181602001fd5b63150b7a0260e01b7bffffffffffffffffffffffffffffffffffffffffffffffffffffffff1916817bffffffffffffffffffffffffffffffffffffffffffffffffffffffff1916149150506118c6565b600190505b949350505050565b600080600090507a184f03e93ff9f4daa797ed6e38ed64bf6a1f010000000000000000831061192c577a184f03e93ff9f4daa797ed6e38ed64bf6a1f010000000000000000838161192257611921612987565b5b0492506040810190505b6d04ee2d6d415b85acef81000000008310611969576d04ee2d6d415b85acef8100000000838161195f5761195e612987565b5b0492506020810190505b662386f26fc10000831061199857662386f26fc10000838161198e5761198d612987565b5b0492506010810190505b6305f5e10083106119c1576305f5e10083816119b7576119b6612987565b5b0492506008810190505b61271083106119e65761271083816119dc576119db612987565b5b0492506004810190505b60648310611a0957606483816119ff576119fe612987565b5b0492506002810190505b600a8310611a18576001810190505b80915050919050565b600073ffffffffffffffffffffffffffffffffffffffff168273ffffffffffffffffffffffffffffffffffffffff1603611a90576040517f08c379a0000000000000000000000000000000000000000000000000000000008152600401611a8790612ae5565b60405180910390fd5b611a998161169f565b15611ad9576040517f08c379a0000000000000000000000000000000000000000000000000000000008152600401611ad090612b51565b60405180910390fd5b611ae76000838360016116e0565b611af08161169f565b15611b30576040517f08c379a0000000000000000000000000000000000000000000000000000000008152600401611b2790612b51565b60405180910390fd5b6001600360008473ffffffffffffffffffffffffffffffffffffffff1673ffffffffffffffffffffffffffffffffffffffff16815260200190815260200160002060008282540192505081905550816002600083815260200190815260200160002060006101000a81548173ffffffffffffffffffffffffffffffffffffffff021916908373ffffffffffffffffffffffffffffffffffffffff160217905550808273ffffffffffffffffffffffffffffffffffffffff16600073ffffffffffffffffffffffffffffffffffffffff167fddf252ad1be2c89b69c2b068fc378daa952ba7f163c4a11628f55a4df523b3ef60405160405180910390a4611c3a6000838360016116e6565b5050565b6000808273ffffffffffffffffffffffffffffffffffffffff163b119050919050565b6000604051905090565b600080fd5b600080fd5b60007fffffffff0000000000000000000000000000000000000000000000000000000082169050919050565b611caa81611c75565b8114611cb557600080fd5b50565b600081359050611cc781611ca1565b92915050565b600060208284031215611ce357611ce2611c6b565b5b6000611cf184828501611cb8565b91505092915050565b60008115159050919050565b611d0f81611cfa565b82525050565b6000602082019050611d2a6000830184611d06565b92915050565b600081519050919050565b600082825260208201905092915050565b60005b83811015611d6a578082015181840152602081019050611d4f565b60008484015250505050565b6000601f19601f8301169050919050565b6000611d9282611d30565b611d9c8185611d3b565b9350611dac818560208601611d4c565b611db581611d76565b840191505092915050565b60006020820190508181036000830152611dda8184611d87565b905092915050565b6000819050919050565b611df581611de2565b8114611e0057600080fd5b50565b600081359050611e1281611dec565b92915050565b600060208284031215611e2e57611e2d611c6b565b5b6000611e3c84828501611e03565b91505092915050565b600073ffffffffffffffffffffffffffffffffffffffff82169050919050565b6000611e7082611e45565b9050919050565b611e8081611e65565b82525050565b6000602082019050611e9b6000830184611e77565b92915050565b611eaa81611e65565b8114611eb557600080fd5b50565b600081359050611ec781611ea1565b92915050565b60008060408385031215611ee457611ee3611c6b565b5b6000611ef285828601611eb8565b9250506020611f0385828601611e03565b9150509250929050565b600060208284031215611f2357611f22611c6b565b5b6000611f3184828501611eb8565b91505092915050565b600080600060608486031215611f5357611f52611c6b565b5b6000611f6186828701611eb8565b9350506020611f7286828701611eb8565b9250506040611f8386828701611e03565b9150509250925092565b611f9681611de2565b82525050565b6000602082019050611fb16000830184611f8d565b92915050565b611fc081611cfa565b8114611fcb57600080fd5b50565b600081359050611fdd81611fb7565b92915050565b60008060408385031215611ffa57611ff9611c6b565b5b600061200885828601611eb8565b925050602061201985828601611fce565b9150509250929050565b600080fd5b600080fd5b7f4e487b7100000000000000000000000000000000000000000000000000000000600052604160045260246000fd5b61206582611d76565b810181811067ffffffffffffffff821117156120845761208361202d565b5b80604052505050565b6000612097611c61565b90506120a3828261205c565b919050565b600067ffffffffffffffff8211156120c3576120c261202d565b5b6120cc82611d76565b9050602081019050919050565b82818337600083830152505050565b60006120fb6120f6846120a8565b61208d565b90508281526020810184848401111561211757612116612028565b5b6121228482856120d9565b509392505050565b600082601f83011261213f5761213e612023565b5b813561214f8482602086016120e8565b91505092915050565b6000806000806080858703121561217257612171611c6b565b5b600061218087828801611eb8565b945050602061219187828801611eb8565b93505060406121a287828801611e03565b925050606085013567ffffffffffffffff8111156121c3576121c2611c70565b5b6121cf8782880161212a565b91505092959194509250565b600080604083850312156121f2576121f1611c6b565b5b600061220085828601611eb8565b925050602061221185828601611eb8565b9150509250929050565b7f4e487b7100000000000000000000000000000000000000000000000000000000600052602260045260246000fd5b6000600282049050600182168061226257607f821691505b6020821081036122755761227461221b565b5b50919050565b7f4552433732313a20617070726f76616c20746f2063757272656e74206f776e6560008201527f7200000000000000000000000000000000000000000000000000000000000000602082015250565b60006122d7602183611d3b565b91506122e28261227b565b604082019050919050565b60006020820190508181036000830152612306816122ca565b9050919050565b7f4552433732313a20617070726f76652063616c6c6572206973206e6f7420746f60008201527f6b656e206f776e6572206f7220617070726f76656420666f7220616c6c000000602082015250565b6000612369603d83611d3b565b91506123748261230d565b604082019050919050565b600060208201905081810360008301526123988161235c565b9050919050565b7f4552433732313a2063616c6c6572206973206e6f7420746f6b656e206f776e6560008201527f72206f7220617070726f76656400000000000000000000000000000000000000602082015250565b60006123fb602d83611d3b565b91506124068261239f565b604082019050919050565b6000602082019050818103600083015261242a816123ee565b9050919050565b7f4552433732313a20696e76616c696420746f6b656e2049440000000000000000600082015250565b6000612467601883611d3b565b915061247282612431565b602082019050919050565b600060208201905081810360008301526124968161245a565b9050919050565b7f4552433732313a2061646472657373207a65726f206973206e6f74206120766160008201527f6c6964206f776e65720000000000000000000000000000000000000000000000602082015250565b60006124f9602983611d3b565b91506125048261249d565b604082019050919050565b60006020820190508181036000830152612528816124ec565b9050919050565b7f4f6e6c792061646d696e732063616e206d696e74000000000000000000000000600082015250565b6000612565601483611d3b565b91506125708261252f565b602082019050919050565b6000602082019050818103600083015261259481612558565b9050919050565b600081905092915050565b60006125b182611d30565b6125bb818561259b565b93506125cb818560208601611d4c565b80840191505092915050565b60006125e382856125a6565b91506125ef82846125a6565b91508190509392505050565b7f4f6e6c792061646d696e732063616e206368616e67652061646d696e20726f6c600082015250565b6000612631602083611d3b565b915061263c826125fb565b602082019050919050565b6000602082019050818103600083015261266081612624565b9050919050565b7f4f776e61626c653a206e6577206f776e657220697320746865207a65726f206160008201527f6464726573730000000000000000000000000000000000000000000000000000602082015250565b60006126c3602683611d3b565b91506126ce82612667565b604082019050919050565b600060208201905081810360008301526126f2816126b6565b9050919050565b7f4552433732313a207472616e736665722066726f6d20696e636f72726563742060008201527f6f776e6572000000000000000000000000000000000000000000000000000000602082015250565b6000612755602583611d3b565b9150612760826126f9565b604082019050919050565b6000602082019050818103600083015261278481612748565b9050919050565b7f4552433732313a207472616e7366657220746f20746865207a65726f2061646460008201527f7265737300000000000000000000000000000000000000000000000000000000602082015250565b60006127e7602483611d3b565b91506127f28261278b565b604082019050919050565b60006020820190508181036000830152612816816127da565b9050919050565b7f4f776e61626c653a2063616c6c6572206973206e6f7420746865206f776e6572600082015250565b6000612853602083611d3b565b915061285e8261281d565b602082019050919050565b6000602082019050818103600083015261288281612846565b9050919050565b7f4552433732313a20617070726f766520746f2063616c6c657200000000000000600082015250565b60006128bf601983611d3b565b91506128ca82612889565b602082019050919050565b600060208201905081810360008301526128ee816128b2565b9050919050565b7f4552433732313a207472616e7366657220746f206e6f6e20455243373231526560008201527f63656976657220696d706c656d656e7465720000000000000000000000000000602082015250565b6000612951603283611d3b565b915061295c826128f5565b604082019050919050565b6000602082019050818103600083015261298081612944565b9050919050565b7f4e487b7100000000000000000000000000000000000000000000000000000000600052601260045260246000fd5b600081519050919050565b600082825260208201905092915050565b60006129dd826129b6565b6129e781856129c1565b93506129f7818560208601611d4c565b612a0081611d76565b840191505092915050565b6000608082019050612a206000830187611e77565b612a2d6020830186611e77565b612a3a6040830185611f8d565b8181036060830152612a4c81846129d2565b905095945050505050565b600081519050612a6681611ca1565b92915050565b600060208284031215612a8257612a81611c6b565b5b6000612a9084828501612a57565b91505092915050565b7f4552433732313a206d696e7420746f20746865207a65726f2061646472657373600082015250565b6000612acf602083611d3b565b9150612ada82612a99565b602082019050919050565b60006020820190508181036000830152612afe81612ac2565b9050919050565b7f4552433732313a20746f6b656e20616c7265616479206d696e74656400000000600082015250565b6000612b3b601c83611d3b565b9150612b4682612b05565b602082019050919050565b60006020820190508181036000830152612b6a81612b2e565b905091905056fea2646970667358221220b5cf29a25c28fb0570d1aeaf8d55af0633239eb9aa2ef80eb757b4eb1792c0c864736f6c63430008130033",
  "immutableReferences": {},
  "source": "// SPDX-License-Identifier: MIT\npragma solidity ^0.8.4;\n\nimport \"@openzeppelin/contracts/token/ERC721/ERC721.sol\";\nimport \"@openzeppelin/contracts/access/Ownable.sol\";\n\ncontract NFT is ERC721, Ownable {\n    mapping(address => bool) public _admins;\n    constructor() ERC721(\"BetNFT721\", \"BTT721\") {\n        _safeMint(msg.sender,0);\n        _safeMint(msg.sender,1);\n        _safeMint(msg.sender,2);\n        _admins[msg.sender] = true;\n    }\n\n    function safeMint(address to, uint256 tokenId) public {\n        require(_admins[msg.sender] == true, \"Only admins can mint\");\n        _safeMint(to, tokenId);\n    }\n\n    function ChangeAdminRole(address user, bool AdminRol) public {\n\n        require(_admins[msg.sender] == true, \"Only admins can change admin rol\");\n        _admins[user] = AdminRol;\n    }\n\n    function isAdmin(address user) public view returns (bool){\n        return (_admins[user]); \n    }\n}\n\n\n\n\n",
  "sourcePath": "C:\\Users\\David\\Desktop\\dapp_M5-SP2\\contracts\\NFT.sol",
  "compiler": {
    "name": "solc",
    "version": "0.8.19+commit.7dd6d404.Emscripten.clang"
  },
  "schemaVersion": "3.4.13",
  "updatedAt": "2023-04-25T20:32:14.746Z",
  "networkType": "ethereum",
  "devdoc": {
    "events": {
      "Approval(address,address,uint256)": {
        "details": "Emitted when `owner` enables `approved` to manage the `tokenId` token."
      },
      "ApprovalForAll(address,address,bool)": {
        "details": "Emitted when `owner` enables or disables (`approved`) `operator` to manage all of its assets."
      },
      "Transfer(address,address,uint256)": {
        "details": "Emitted when `tokenId` token is transferred from `from` to `to`."
      }
    },
    "kind": "dev",
    "methods": {
      "approve(address,uint256)": {
        "details": "See {IERC721-approve}."
      },
      "balanceOf(address)": {
        "details": "See {IERC721-balanceOf}."
      },
      "getApproved(uint256)": {
        "details": "See {IERC721-getApproved}."
      },
      "isApprovedForAll(address,address)": {
        "details": "See {IERC721-isApprovedForAll}."
      },
      "name()": {
        "details": "See {IERC721Metadata-name}."
      },
      "owner()": {
        "details": "Returns the address of the current owner."
      },
      "ownerOf(uint256)": {
        "details": "See {IERC721-ownerOf}."
      },
      "renounceOwnership()": {
        "details": "Leaves the contract without owner. It will not be possible to call `onlyOwner` functions anymore. Can only be called by the current owner. NOTE: Renouncing ownership will leave the contract without an owner, thereby removing any functionality that is only available to the owner."
      },
      "safeTransferFrom(address,address,uint256)": {
        "details": "See {IERC721-safeTransferFrom}."
      },
      "safeTransferFrom(address,address,uint256,bytes)": {
        "details": "See {IERC721-safeTransferFrom}."
      },
      "setApprovalForAll(address,bool)": {
        "details": "See {IERC721-setApprovalForAll}."
      },
      "supportsInterface(bytes4)": {
        "details": "See {IERC165-supportsInterface}."
      },
      "symbol()": {
        "details": "See {IERC721Metadata-symbol}."
      },
      "tokenURI(uint256)": {
        "details": "See {IERC721Metadata-tokenURI}."
      },
      "transferFrom(address,address,uint256)": {
        "details": "See {IERC721-transferFrom}."
      },
      "transferOwnership(address)": {
        "details": "Transfers ownership of the contract to a new account (`newOwner`). Can only be called by the current owner."
      }
    },
    "version": 1
  },
  "userdoc": {
    "kind": "user",
    "methods": {},
    "version": 1
  }
}